{
	".deploys/use-cases/EnglishAuction.sol": {
		"EnglishAuction": {
			"abi": [
				{
					"inputs": [
						{
							"internalType": "address",
							"name": "fractionalizedRealEstateTokenAddress",
							"type": "address"
						}
					],
					"stateMutability": "nonpayable",
					"type": "constructor"
				},
				{
					"inputs": [],
					"name": "EnglishAuction_AuctionAlreadyStarted",
					"type": "error"
				},
				{
					"inputs": [],
					"name": "EnglishAuction_AuctionEnded",
					"type": "error"
				},
				{
					"inputs": [],
					"name": "EnglishAuction_BidNotHighEnough",
					"type": "error"
				},
				{
					"inputs": [],
					"name": "EnglishAuction_CannotWithdrawHighestBid",
					"type": "error"
				},
				{
					"inputs": [],
					"name": "EnglishAuction_NoAuctionsInProgress",
					"type": "error"
				},
				{
					"inputs": [],
					"name": "EnglishAuction_OnlySellerCanCall",
					"type": "error"
				},
				{
					"inputs": [],
					"name": "EnglishAuction_TooEarlyToEnd",
					"type": "error"
				},
				{
					"inputs": [
						{
							"internalType": "address",
							"name": "recipient",
							"type": "address"
						},
						{
							"internalType": "uint256",
							"name": "amount",
							"type": "uint256"
						}
					],
					"name": "FailedToSendEth",
					"type": "error"
				},
				{
					"inputs": [
						{
							"internalType": "address",
							"name": "bidder",
							"type": "address"
						},
						{
							"internalType": "uint256",
							"name": "amount",
							"type": "uint256"
						}
					],
					"name": "FailedToWithdrawBid",
					"type": "error"
				},
				{
					"inputs": [],
					"name": "NothingToWithdraw",
					"type": "error"
				},
				{
					"inputs": [],
					"name": "OnlyRealEstateTokenSupported",
					"type": "error"
				},
				{
					"inputs": [],
					"name": "ReentrancyGuardReentrantCall",
					"type": "error"
				},
				{
					"inputs": [
						{
							"internalType": "uint8",
							"name": "bits",
							"type": "uint8"
						},
						{
							"internalType": "uint256",
							"name": "value",
							"type": "uint256"
						}
					],
					"name": "SafeCastOverflowedUintDowncast",
					"type": "error"
				},
				{
					"anonymous": false,
					"inputs": [
						{
							"indexed": true,
							"internalType": "uint256",
							"name": "tokenId",
							"type": "uint256"
						},
						{
							"indexed": false,
							"internalType": "uint256",
							"name": "amount",
							"type": "uint256"
						},
						{
							"indexed": true,
							"internalType": "address",
							"name": "winner",
							"type": "address"
						},
						{
							"indexed": true,
							"internalType": "uint256",
							"name": "winningBid",
							"type": "uint256"
						}
					],
					"name": "AuctionEnded",
					"type": "event"
				},
				{
					"anonymous": false,
					"inputs": [
						{
							"indexed": true,
							"internalType": "uint256",
							"name": "tokenId",
							"type": "uint256"
						},
						{
							"indexed": true,
							"internalType": "uint256",
							"name": "amount",
							"type": "uint256"
						},
						{
							"indexed": true,
							"internalType": "uint48",
							"name": "endTimestamp",
							"type": "uint48"
						}
					],
					"name": "AuctionStarted",
					"type": "event"
				},
				{
					"anonymous": false,
					"inputs": [
						{
							"indexed": true,
							"internalType": "address",
							"name": "bidder",
							"type": "address"
						},
						{
							"indexed": true,
							"internalType": "uint256",
							"name": "amount",
							"type": "uint256"
						}
					],
					"name": "Bid",
					"type": "event"
				},
				{
					"inputs": [],
					"name": "bid",
					"outputs": [],
					"stateMutability": "payable",
					"type": "function"
				},
				{
					"inputs": [],
					"name": "endAuction",
					"outputs": [],
					"stateMutability": "nonpayable",
					"type": "function"
				},
				{
					"inputs": [],
					"name": "getTokenIdOnAuction",
					"outputs": [
						{
							"internalType": "uint256",
							"name": "",
							"type": "uint256"
						}
					],
					"stateMutability": "view",
					"type": "function"
				},
				{
					"inputs": [
						{
							"internalType": "address",
							"name": "",
							"type": "address"
						},
						{
							"internalType": "address",
							"name": "",
							"type": "address"
						},
						{
							"internalType": "uint256[]",
							"name": "",
							"type": "uint256[]"
						},
						{
							"internalType": "uint256[]",
							"name": "",
							"type": "uint256[]"
						},
						{
							"internalType": "bytes",
							"name": "",
							"type": "bytes"
						}
					],
					"name": "onERC1155BatchReceived",
					"outputs": [
						{
							"internalType": "bytes4",
							"name": "",
							"type": "bytes4"
						}
					],
					"stateMutability": "view",
					"type": "function"
				},
				{
					"inputs": [
						{
							"internalType": "address",
							"name": "",
							"type": "address"
						},
						{
							"internalType": "address",
							"name": "",
							"type": "address"
						},
						{
							"internalType": "uint256",
							"name": "",
							"type": "uint256"
						},
						{
							"internalType": "uint256",
							"name": "",
							"type": "uint256"
						},
						{
							"internalType": "bytes",
							"name": "",
							"type": "bytes"
						}
					],
					"name": "onERC1155Received",
					"outputs": [
						{
							"internalType": "bytes4",
							"name": "",
							"type": "bytes4"
						}
					],
					"stateMutability": "view",
					"type": "function"
				},
				{
					"inputs": [
						{
							"internalType": "uint256",
							"name": "tokenId",
							"type": "uint256"
						},
						{
							"internalType": "uint256",
							"name": "amount",
							"type": "uint256"
						},
						{
							"internalType": "bytes",
							"name": "data",
							"type": "bytes"
						},
						{
							"internalType": "uint256",
							"name": "startingBid",
							"type": "uint256"
						}
					],
					"name": "startAuction",
					"outputs": [],
					"stateMutability": "nonpayable",
					"type": "function"
				},
				{
					"inputs": [
						{
							"internalType": "bytes4",
							"name": "interfaceId",
							"type": "bytes4"
						}
					],
					"name": "supportsInterface",
					"outputs": [
						{
							"internalType": "bool",
							"name": "",
							"type": "bool"
						}
					],
					"stateMutability": "view",
					"type": "function"
				},
				{
					"inputs": [],
					"name": "withdrawBid",
					"outputs": [],
					"stateMutability": "nonpayable",
					"type": "function"
				}
			],
			"devdoc": {
				"errors": {
					"ReentrancyGuardReentrantCall()": [
						{
							"details": "Unauthorized reentrant call."
						}
					],
					"SafeCastOverflowedUintDowncast(uint8,uint256)": [
						{
							"details": "Value doesn't fit in an uint of `bits` size."
						}
					]
				},
				"kind": "dev",
				"methods": {
					"supportsInterface(bytes4)": {
						"details": "Returns true if this contract implements the interface defined by `interfaceId`. See the corresponding https://eips.ethereum.org/EIPS/eip-165#how-interfaces-are-identified[EIP section] to learn more about how these ids are created. This function call must use less than 30 000 gas."
					}
				},
				"version": 1
			},
			"evm": {
				"assembly": "    /* \".deploys/use-cases/EnglishAuction.sol\":394:5313  contract EnglishAuction is IERC1155Receiver, ReentrancyGuard {... */\n  mstore(0x40, 0xc0)\n    /* \".deploys/use-cases/EnglishAuction.sol\":1683:1859  constructor(address fractionalizedRealEstateTokenAddress) {... */\n  callvalue\n  dup1\n  iszero\n  tag_1\n  jumpi\n  0x00\n  dup1\n  revert\ntag_1:\n  pop\n  mload(0x40)\n  sub(codesize, bytecodeSize)\n  dup1\n  bytecodeSize\n  dup4\n  codecopy\n  dup2\n  add\n  0x40\n  dup2\n  swap1\n  mstore\n  tag_2\n  swap2\n  tag_3\n  jump\t// in\ntag_2:\n    /* \"@openzeppelin/contracts/utils/ReentrancyGuard.sol\":1713:1714  1 */\n  0x01\n    /* \"@openzeppelin/contracts/utils/ReentrancyGuard.sol\":1917:1924  _status */\n  0x00\n    /* \"@openzeppelin/contracts/utils/ReentrancyGuard.sol\":1917:1938  _status = NOT_ENTERED */\n  sstore\n    /* \".deploys/use-cases/EnglishAuction.sol\":1762:1772  msg.sender */\n  caller\n    /* \".deploys/use-cases/EnglishAuction.sol\":1751:1772  i_seller = msg.sender */\n  0x80\n  mstore\n  sub(shl(0xa0, 0x01), 0x01)\n    /* \".deploys/use-cases/EnglishAuction.sol\":1782:1852  i_fractionalizedRealEstateToken = fractionalizedRealEstateTokenAddress */\n  and\n  0xa0\n  mstore\n    /* \".deploys/use-cases/EnglishAuction.sol\":394:5313  contract EnglishAuction is IERC1155Receiver, ReentrancyGuard {... */\n  jump(tag_9)\n    /* \"#utility.yul\":14:304   */\ntag_3:\n    /* \"#utility.yul\":84:90   */\n  0x00\n    /* \"#utility.yul\":137:139   */\n  0x20\n    /* \"#utility.yul\":125:134   */\n  dup3\n    /* \"#utility.yul\":116:123   */\n  dup5\n    /* \"#utility.yul\":112:135   */\n  sub\n    /* \"#utility.yul\":108:140   */\n  slt\n    /* \"#utility.yul\":105:157   */\n  iszero\n  tag_11\n  jumpi\n    /* \"#utility.yul\":153:154   */\n  0x00\n    /* \"#utility.yul\":150:151   */\n  dup1\n    /* \"#utility.yul\":143:155   */\n  revert\n    /* \"#utility.yul\":105:157   */\ntag_11:\n    /* \"#utility.yul\":179:195   */\n  dup2\n  mload\n  sub(shl(0xa0, 0x01), 0x01)\n    /* \"#utility.yul\":224:255   */\n  dup2\n  and\n    /* \"#utility.yul\":214:256   */\n  dup2\n  eq\n    /* \"#utility.yul\":204:274   */\n  tag_12\n  jumpi\n    /* \"#utility.yul\":270:271   */\n  0x00\n    /* \"#utility.yul\":267:268   */\n  dup1\n    /* \"#utility.yul\":260:272   */\n  revert\n    /* \"#utility.yul\":204:274   */\ntag_12:\n    /* \"#utility.yul\":293:298   */\n  swap4\n    /* \"#utility.yul\":14:304   */\n  swap3\n  pop\n  pop\n  pop\n  jump\t// out\ntag_9:\n    /* \".deploys/use-cases/EnglishAuction.sol\":394:5313  contract EnglishAuction is IERC1155Receiver, ReentrancyGuard {... */\n  mload(0x80)\n  mload(0xa0)\n  codecopy(0x00, dataOffset(sub_0), dataSize(sub_0))\n  0x00\n  assignImmutable(\"0x6304e47846f882085b0f4b1a184252ae95ffe5e2a02daf39c014f492dcb1441c\")\n  0x00\n  assignImmutable(\"0xc47ece0ffae697632ce145a7086cbcf260f7fa60876ff2606761ea2b7581ee76\")\n  return(0x00, dataSize(sub_0))\nstop\n\nsub_0: assembly {\n        /* \".deploys/use-cases/EnglishAuction.sol\":394:5313  contract EnglishAuction is IERC1155Receiver, ReentrancyGuard {... */\n      mstore(0x40, 0x80)\n      jumpi(tag_1, lt(calldatasize, 0x04))\n      shr(0xe0, calldataload(0x00))\n      dup1\n      0xbc197c81\n      gt\n      tag_10\n      jumpi\n      dup1\n      0xbc197c81\n      eq\n      tag_6\n      jumpi\n      dup1\n      0xe8e20549\n      eq\n      tag_7\n      jumpi\n      dup1\n      0xf23a6e61\n      eq\n      tag_8\n      jumpi\n      dup1\n      0xfe67a54b\n      eq\n      tag_9\n      jumpi\n      0x00\n      dup1\n      revert\n    tag_10:\n      dup1\n      0x01ffc9a7\n      eq\n      tag_2\n      jumpi\n      dup1\n      0x1998aeef\n      eq\n      tag_3\n      jumpi\n      dup1\n      0x37271cc7\n      eq\n      tag_4\n      jumpi\n      dup1\n      0x7a6cd7bb\n      eq\n      tag_5\n      jumpi\n    tag_1:\n      0x00\n      dup1\n      revert\n        /* \".deploys/use-cases/EnglishAuction.sol\":5094:5311  function supportsInterface(bytes4 interfaceId) public view virtual override(IERC165) returns (bool) {... */\n    tag_2:\n      callvalue\n      dup1\n      iszero\n      tag_11\n      jumpi\n      0x00\n      dup1\n      revert\n    tag_11:\n      pop\n      tag_12\n      tag_13\n      calldatasize\n      0x04\n      tag_14\n      jump\t// in\n    tag_13:\n      tag_15\n      jump\t// in\n    tag_12:\n      mload(0x40)\n        /* \"#utility.yul\":470:484   */\n      swap1\n      iszero\n        /* \"#utility.yul\":463:485   */\n      iszero\n        /* \"#utility.yul\":445:486   */\n      dup2\n      mstore\n        /* \"#utility.yul\":433:435   */\n      0x20\n        /* \"#utility.yul\":418:436   */\n      add\n        /* \".deploys/use-cases/EnglishAuction.sol\":5094:5311  function supportsInterface(bytes4 interfaceId) public view virtual override(IERC165) returns (bool) {... */\n    tag_16:\n      mload(0x40)\n      dup1\n      swap2\n      sub\n      swap1\n      return\n        /* \".deploys/use-cases/EnglishAuction.sol\":2716:3160  function bid() external payable nonReentrant {... */\n    tag_3:\n      tag_18\n      tag_19\n      jump\t// in\n    tag_18:\n      stop\n        /* \".deploys/use-cases/EnglishAuction.sol\":3166:3573  function withdrawBid() external nonReentrant {... */\n    tag_4:\n      callvalue\n      dup1\n      iszero\n      tag_20\n      jumpi\n      0x00\n      dup1\n      revert\n    tag_20:\n      pop\n      tag_18\n      tag_22\n      jump\t// in\n        /* \".deploys/use-cases/EnglishAuction.sol\":1865:2599  function startAuction(uint256 tokenId, uint256 amount, bytes calldata data, uint256 startingBid)... */\n    tag_5:\n      callvalue\n      dup1\n      iszero\n      tag_23\n      jumpi\n      0x00\n      dup1\n      revert\n    tag_23:\n      pop\n      tag_18\n      tag_25\n      calldatasize\n      0x04\n      tag_26\n      jump\t// in\n    tag_25:\n      tag_27\n      jump\t// in\n        /* \".deploys/use-cases/EnglishAuction.sol\":4651:5088  function onERC1155BatchReceived(... */\n    tag_6:\n      callvalue\n      dup1\n      iszero\n      tag_28\n      jumpi\n      0x00\n      dup1\n      revert\n    tag_28:\n      pop\n      tag_29\n      tag_30\n      calldatasize\n      0x04\n      tag_31\n      jump\t// in\n    tag_30:\n      tag_32\n      jump\t// in\n    tag_29:\n      mload(0x40)\n      not(sub(shl(0xe0, 0x01), 0x01))\n        /* \"#utility.yul\":3395:3428   */\n      swap1\n      swap2\n      and\n        /* \"#utility.yul\":3377:3429   */\n      dup2\n      mstore\n        /* \"#utility.yul\":3365:3367   */\n      0x20\n        /* \"#utility.yul\":3350:3368   */\n      add\n        /* \".deploys/use-cases/EnglishAuction.sol\":4651:5088  function onERC1155BatchReceived(... */\n      tag_16\n        /* \"#utility.yul\":3233:3435   */\n      jump\n        /* \".deploys/use-cases/EnglishAuction.sol\":2605:2710  function getTokenIdOnAuction() external view returns (uint256) {... */\n    tag_7:\n      callvalue\n      dup1\n      iszero\n      tag_35\n      jumpi\n      0x00\n      dup1\n      revert\n    tag_35:\n      pop\n        /* \".deploys/use-cases/EnglishAuction.sol\":2685:2703  s_tokenIdOnAuction */\n      sload(0x03)\n        /* \".deploys/use-cases/EnglishAuction.sol\":2605:2710  function getTokenIdOnAuction() external view returns (uint256) {... */\n      mload(0x40)\n        /* \"#utility.yul\":3586:3611   */\n      swap1\n      dup2\n      mstore\n        /* \"#utility.yul\":3574:3576   */\n      0x20\n        /* \"#utility.yul\":3559:3577   */\n      add\n        /* \".deploys/use-cases/EnglishAuction.sol\":2605:2710  function getTokenIdOnAuction() external view returns (uint256) {... */\n      tag_16\n        /* \"#utility.yul\":3440:3617   */\n      jump\n        /* \".deploys/use-cases/EnglishAuction.sol\":4242:4645  function onERC1155Received(... */\n    tag_8:\n      callvalue\n      dup1\n      iszero\n      tag_40\n      jumpi\n      0x00\n      dup1\n      revert\n    tag_40:\n      pop\n      tag_29\n      tag_42\n      calldatasize\n      0x04\n      tag_43\n      jump\t// in\n    tag_42:\n      tag_44\n      jump\t// in\n        /* \".deploys/use-cases/EnglishAuction.sol\":3579:4236  function endAuction() external nonReentrant {... */\n    tag_9:\n      callvalue\n      dup1\n      iszero\n      tag_46\n      jumpi\n      0x00\n      dup1\n      revert\n    tag_46:\n      pop\n      tag_18\n      tag_48\n      jump\t// in\n        /* \".deploys/use-cases/EnglishAuction.sol\":5094:5311  function supportsInterface(bytes4 interfaceId) public view virtual override(IERC165) returns (bool) {... */\n    tag_15:\n        /* \".deploys/use-cases/EnglishAuction.sol\":5188:5192  bool */\n      0x00\n      not(sub(shl(0xe0, 0x01), 0x01))\n        /* \".deploys/use-cases/EnglishAuction.sol\":5211:5260  interfaceId == type(IERC1155Receiver).interfaceId */\n      dup3\n      and\n      shl(0xe5, 0x02711897)\n      eq\n      dup1\n        /* \".deploys/use-cases/EnglishAuction.sol\":5211:5304  interfaceId == type(IERC1155Receiver).interfaceId || interfaceId == type(IERC165).interfaceId */\n      tag_50\n      jumpi\n      pop\n      not(sub(shl(0xe0, 0x01), 0x01))\n        /* \".deploys/use-cases/EnglishAuction.sol\":5264:5304  interfaceId == type(IERC165).interfaceId */\n      dup3\n      and\n      shl(0xe0, 0x01ffc9a7)\n      eq\n        /* \".deploys/use-cases/EnglishAuction.sol\":5211:5304  interfaceId == type(IERC1155Receiver).interfaceId || interfaceId == type(IERC165).interfaceId */\n    tag_50:\n        /* \".deploys/use-cases/EnglishAuction.sol\":5204:5304  return interfaceId == type(IERC1155Receiver).interfaceId || interfaceId == type(IERC165).interfaceId */\n      swap3\n        /* \".deploys/use-cases/EnglishAuction.sol\":5094:5311  function supportsInterface(bytes4 interfaceId) public view virtual override(IERC165) returns (bool) {... */\n      swap2\n      pop\n      pop\n      jump\t// out\n        /* \".deploys/use-cases/EnglishAuction.sol\":2716:3160  function bid() external payable nonReentrant {... */\n    tag_19:\n        /* \"@openzeppelin/contracts/utils/ReentrancyGuard.sol\":2356:2377  _nonReentrantBefore() */\n      tag_52\n        /* \"@openzeppelin/contracts/utils/ReentrancyGuard.sol\":2356:2375  _nonReentrantBefore */\n      tag_53\n        /* \"@openzeppelin/contracts/utils/ReentrancyGuard.sol\":2356:2377  _nonReentrantBefore() */\n      jump\t// in\n    tag_52:\n        /* \".deploys/use-cases/EnglishAuction.sol\":2776:2785  s_started */\n      and(0xff, sload(0x01))\n        /* \".deploys/use-cases/EnglishAuction.sol\":2771:2831  if (!s_started) revert EnglishAuction_NoAuctionsInProgress() */\n      tag_55\n      jumpi\n        /* \".deploys/use-cases/EnglishAuction.sol\":2794:2831  EnglishAuction_NoAuctionsInProgress() */\n      mload(0x40)\n      shl(0xe1, 0x6e66e97d)\n      dup2\n      mstore\n      0x04\n      add\n      mload(0x40)\n      dup1\n      swap2\n      sub\n      swap1\n      revert\n        /* \".deploys/use-cases/EnglishAuction.sol\":2771:2831  if (!s_started) revert EnglishAuction_NoAuctionsInProgress() */\n    tag_55:\n        /* \".deploys/use-cases/EnglishAuction.sol\":2864:2878  s_endTimestamp */\n      sload(0x01)\n      0x0100\n      swap1\n      div\n      0xffffffffffff\n      and\n        /* \".deploys/use-cases/EnglishAuction.sol\":2845:2860  block.timestamp */\n      timestamp\n        /* \".deploys/use-cases/EnglishAuction.sol\":2845:2878  block.timestamp >= s_endTimestamp */\n      lt\n        /* \".deploys/use-cases/EnglishAuction.sol\":2841:2916  if (block.timestamp >= s_endTimestamp) revert EnglishAuction_AuctionEnded() */\n      tag_56\n      jumpi\n        /* \".deploys/use-cases/EnglishAuction.sol\":2887:2916  EnglishAuction_AuctionEnded() */\n      mload(0x40)\n      shl(0xe0, 0xb85294d9)\n      dup2\n      mstore\n      0x04\n      add\n      mload(0x40)\n      dup1\n      swap2\n      sub\n      swap1\n      revert\n        /* \".deploys/use-cases/EnglishAuction.sol\":2841:2916  if (block.timestamp >= s_endTimestamp) revert EnglishAuction_AuctionEnded() */\n    tag_56:\n        /* \".deploys/use-cases/EnglishAuction.sol\":2943:2955  s_highestBid */\n      sload(0x02)\n        /* \".deploys/use-cases/EnglishAuction.sol\":2930:2939  msg.value */\n      callvalue\n        /* \".deploys/use-cases/EnglishAuction.sol\":2930:2955  msg.value <= s_highestBid */\n      gt\n        /* \".deploys/use-cases/EnglishAuction.sol\":2926:2997  if (msg.value <= s_highestBid) revert EnglishAuction_BidNotHighEnough() */\n      tag_57\n      jumpi\n        /* \".deploys/use-cases/EnglishAuction.sol\":2964:2997  EnglishAuction_BidNotHighEnough() */\n      mload(0x40)\n      shl(0xe0, 0x8aba601f)\n      dup2\n      mstore\n      0x04\n      add\n      mload(0x40)\n      dup1\n      swap2\n      sub\n      swap1\n      revert\n        /* \".deploys/use-cases/EnglishAuction.sol\":2926:2997  if (msg.value <= s_highestBid) revert EnglishAuction_BidNotHighEnough() */\n    tag_57:\n        /* \".deploys/use-cases/EnglishAuction.sol\":3008:3023  s_highestBidder */\n      0x01\n        /* \".deploys/use-cases/EnglishAuction.sol\":3008:3036  s_highestBidder = msg.sender */\n      dup1\n      sload\n      not(sub(shl(0xd8, 0x01), shl(0x38, 0x01)))\n      and\n        /* \".deploys/use-cases/EnglishAuction.sol\":3026:3036  msg.sender */\n      caller\n      shl(0x38, 0x01)\n        /* \".deploys/use-cases/EnglishAuction.sol\":3008:3036  s_highestBidder = msg.sender */\n      dup2\n      mul\n      swap2\n      swap1\n      swap2\n      or\n      swap1\n      swap2\n      sstore\n        /* \".deploys/use-cases/EnglishAuction.sol\":3061:3070  msg.value */\n      callvalue\n        /* \".deploys/use-cases/EnglishAuction.sol\":3046:3058  s_highestBid */\n      0x02\n        /* \".deploys/use-cases/EnglishAuction.sol\":3046:3070  s_highestBid = msg.value */\n      dup2\n      swap1\n      sstore\n      0x00\n        /* \".deploys/use-cases/EnglishAuction.sol\":3080:3098  s_bids[msg.sender] */\n      swap2\n      dup3\n      mstore\n        /* \".deploys/use-cases/EnglishAuction.sol\":3080:3086  s_bids */\n      0x05\n        /* \".deploys/use-cases/EnglishAuction.sol\":3080:3098  s_bids[msg.sender] */\n      0x20\n      mstore\n      0x40\n      dup3\n      keccak256\n        /* \".deploys/use-cases/EnglishAuction.sol\":3080:3111  s_bids[msg.sender] += msg.value */\n      dup1\n      sload\n        /* \".deploys/use-cases/EnglishAuction.sol\":3061:3070  msg.value */\n      swap2\n      swap3\n        /* \".deploys/use-cases/EnglishAuction.sol\":3080:3098  s_bids[msg.sender] */\n      swap1\n      swap2\n        /* \".deploys/use-cases/EnglishAuction.sol\":3080:3111  s_bids[msg.sender] += msg.value */\n      tag_58\n      swap1\n        /* \".deploys/use-cases/EnglishAuction.sol\":3061:3070  msg.value */\n      dup5\n      swap1\n        /* \".deploys/use-cases/EnglishAuction.sol\":3080:3111  s_bids[msg.sender] += msg.value */\n      tag_59\n      jump\t// in\n    tag_58:\n      swap1\n      swap2\n      sstore\n      pop\n      pop\n        /* \".deploys/use-cases/EnglishAuction.sol\":3127:3153  Bid(msg.sender, msg.value) */\n      mload(0x40)\n        /* \".deploys/use-cases/EnglishAuction.sol\":3143:3152  msg.value */\n      callvalue\n      swap1\n        /* \".deploys/use-cases/EnglishAuction.sol\":3131:3141  msg.sender */\n      caller\n      swap1\n        /* \".deploys/use-cases/EnglishAuction.sol\":3127:3153  Bid(msg.sender, msg.value) */\n      0xe684a55f31b79eca403df938249029212a5925ec6be8012e099b45bc1019e5d2\n      swap1\n      0x00\n      swap1\n      log3\n        /* \"@openzeppelin/contracts/utils/ReentrancyGuard.sol\":2398:2418  _nonReentrantAfter() */\n      tag_60\n        /* \"@openzeppelin/contracts/utils/ReentrancyGuard.sol\":1713:1714  1 */\n      0x01\n        /* \"@openzeppelin/contracts/utils/ReentrancyGuard.sol\":2924:2931  _status */\n      0x00\n        /* \"@openzeppelin/contracts/utils/ReentrancyGuard.sol\":2924:2945  _status = NOT_ENTERED */\n      sstore\n        /* \"@openzeppelin/contracts/utils/ReentrancyGuard.sol\":2744:2952  function _nonReentrantAfter() private {... */\n      jump\n        /* \"@openzeppelin/contracts/utils/ReentrancyGuard.sol\":2398:2418  _nonReentrantAfter() */\n    tag_60:\n        /* \".deploys/use-cases/EnglishAuction.sol\":2716:3160  function bid() external payable nonReentrant {... */\n      jump\t// out\n        /* \".deploys/use-cases/EnglishAuction.sol\":3166:3573  function withdrawBid() external nonReentrant {... */\n    tag_22:\n        /* \"@openzeppelin/contracts/utils/ReentrancyGuard.sol\":2356:2377  _nonReentrantBefore() */\n      tag_63\n        /* \"@openzeppelin/contracts/utils/ReentrancyGuard.sol\":2356:2375  _nonReentrantBefore */\n      tag_53\n        /* \"@openzeppelin/contracts/utils/ReentrancyGuard.sol\":2356:2377  _nonReentrantBefore() */\n      jump\t// in\n    tag_63:\n        /* \".deploys/use-cases/EnglishAuction.sol\":3239:3254  s_highestBidder */\n      sload(0x01)\n      shl(0x38, 0x01)\n      swap1\n      div\n      sub(shl(0xa0, 0x01), 0x01)\n      and\n        /* \".deploys/use-cases/EnglishAuction.sol\":3225:3235  msg.sender */\n      caller\n        /* \".deploys/use-cases/EnglishAuction.sol\":3225:3254  msg.sender == s_highestBidder */\n      sub\n        /* \".deploys/use-cases/EnglishAuction.sol\":3221:3304  if (msg.sender == s_highestBidder) revert EnglishAuction_CannotWithdrawHighestBid() */\n      tag_65\n      jumpi\n        /* \".deploys/use-cases/EnglishAuction.sol\":3263:3304  EnglishAuction_CannotWithdrawHighestBid() */\n      mload(0x40)\n      shl(0xe3, 0x1593fa25)\n      dup2\n      mstore\n      0x04\n      add\n      mload(0x40)\n      dup1\n      swap2\n      sub\n      swap1\n      revert\n        /* \".deploys/use-cases/EnglishAuction.sol\":3221:3304  if (msg.sender == s_highestBidder) revert EnglishAuction_CannotWithdrawHighestBid() */\n    tag_65:\n        /* \".deploys/use-cases/EnglishAuction.sol\":3339:3349  msg.sender */\n      caller\n        /* \".deploys/use-cases/EnglishAuction.sol\":3315:3329  uint256 amount */\n      0x00\n        /* \".deploys/use-cases/EnglishAuction.sol\":3332:3350  s_bids[msg.sender] */\n      swap1\n      dup2\n      mstore\n        /* \".deploys/use-cases/EnglishAuction.sol\":3332:3338  s_bids */\n      0x05\n        /* \".deploys/use-cases/EnglishAuction.sol\":3332:3350  s_bids[msg.sender] */\n      0x20\n      mstore\n      0x40\n      dup2\n      keccak256\n      sload\n      swap1\n        /* \".deploys/use-cases/EnglishAuction.sol\":3364:3375  amount == 0 */\n      dup2\n      swap1\n      sub\n        /* \".deploys/use-cases/EnglishAuction.sol\":3360:3403  if (amount == 0) revert NothingToWithdraw() */\n      tag_66\n      jumpi\n        /* \".deploys/use-cases/EnglishAuction.sol\":3384:3403  NothingToWithdraw() */\n      mload(0x40)\n      shl(0xe5, 0x0686827b)\n      dup2\n      mstore\n      0x04\n      add\n      mload(0x40)\n      dup1\n      swap2\n      sub\n      swap1\n      revert\n        /* \".deploys/use-cases/EnglishAuction.sol\":3360:3403  if (amount == 0) revert NothingToWithdraw() */\n    tag_66:\n        /* \".deploys/use-cases/EnglishAuction.sol\":3427:3437  msg.sender */\n      caller\n        /* \".deploys/use-cases/EnglishAuction.sol\":3420:3438  s_bids[msg.sender] */\n      0x00\n      dup2\n      dup2\n      mstore\n        /* \".deploys/use-cases/EnglishAuction.sol\":3420:3426  s_bids */\n      0x05\n        /* \".deploys/use-cases/EnglishAuction.sol\":3420:3438  s_bids[msg.sender] */\n      0x20\n      mstore\n      0x40\n      dup1\n      dup3\n      keccak256\n        /* \".deploys/use-cases/EnglishAuction.sol\":3413:3438  delete s_bids[msg.sender] */\n      dup3\n      swap1\n      sstore\n        /* \".deploys/use-cases/EnglishAuction.sol\":3464:3498  msg.sender.call{value: amount}(\"\") */\n      mload\n        /* \".deploys/use-cases/EnglishAuction.sol\":3420:3438  s_bids[msg.sender] */\n      swap1\n      swap2\n        /* \".deploys/use-cases/EnglishAuction.sol\":3427:3437  msg.sender */\n      swap1\n        /* \".deploys/use-cases/EnglishAuction.sol\":3487:3493  amount */\n      dup4\n      swap1\n        /* \".deploys/use-cases/EnglishAuction.sol\":3420:3438  s_bids[msg.sender] */\n      dup4\n        /* \".deploys/use-cases/EnglishAuction.sol\":3464:3498  msg.sender.call{value: amount}(\"\") */\n      dup2\n        /* \".deploys/use-cases/EnglishAuction.sol\":3420:3438  s_bids[msg.sender] */\n      dup2\n        /* \".deploys/use-cases/EnglishAuction.sol\":3464:3498  msg.sender.call{value: amount}(\"\") */\n      dup2\n        /* \".deploys/use-cases/EnglishAuction.sol\":3487:3493  amount */\n      dup6\n        /* \".deploys/use-cases/EnglishAuction.sol\":3427:3437  msg.sender */\n      dup8\n        /* \".deploys/use-cases/EnglishAuction.sol\":3464:3498  msg.sender.call{value: amount}(\"\") */\n      gas\n      call\n      swap3\n      pop\n      pop\n      pop\n      returndatasize\n      dup1\n      0x00\n      dup2\n      eq\n      tag_71\n      jumpi\n      mload(0x40)\n      swap2\n      pop\n      and(add(returndatasize, 0x3f), not(0x1f))\n      dup3\n      add\n      0x40\n      mstore\n      returndatasize\n      dup3\n      mstore\n      returndatasize\n      0x00\n      0x20\n      dup5\n      add\n      returndatacopy\n      jump(tag_70)\n    tag_71:\n      0x60\n      swap2\n      pop\n    tag_70:\n      pop\n        /* \".deploys/use-cases/EnglishAuction.sol\":3449:3498  (bool sent,) = msg.sender.call{value: amount}(\"\") */\n      pop\n      swap1\n      pop\n        /* \".deploys/use-cases/EnglishAuction.sol\":3514:3518  sent */\n      dup1\n        /* \".deploys/use-cases/EnglishAuction.sol\":3509:3566  if (!sent) revert FailedToWithdrawBid(msg.sender, amount) */\n      tag_72\n      jumpi\n        /* \".deploys/use-cases/EnglishAuction.sol\":3527:3566  FailedToWithdrawBid(msg.sender, amount) */\n      mload(0x40)\n      shl(0xe0, 0x11f847e7)\n      dup2\n      mstore\n        /* \".deploys/use-cases/EnglishAuction.sol\":3547:3557  msg.sender */\n      caller\n        /* \".deploys/use-cases/EnglishAuction.sol\":3527:3566  FailedToWithdrawBid(msg.sender, amount) */\n      0x04\n      dup3\n      add\n        /* \"#utility.yul\":4933:4984   */\n      mstore\n        /* \"#utility.yul\":5000:5018   */\n      0x24\n      dup2\n      add\n        /* \"#utility.yul\":4993:5027   */\n      dup4\n      swap1\n      mstore\n        /* \"#utility.yul\":4906:4924   */\n      0x44\n      add\n        /* \".deploys/use-cases/EnglishAuction.sol\":3527:3566  FailedToWithdrawBid(msg.sender, amount) */\n    tag_73:\n      mload(0x40)\n      dup1\n      swap2\n      sub\n      swap1\n      revert\n        /* \".deploys/use-cases/EnglishAuction.sol\":3509:3566  if (!sent) revert FailedToWithdrawBid(msg.sender, amount) */\n    tag_72:\n        /* \".deploys/use-cases/EnglishAuction.sol\":3211:3573  {... */\n      pop\n      pop\n        /* \"@openzeppelin/contracts/utils/ReentrancyGuard.sol\":2398:2418  _nonReentrantAfter() */\n      tag_60\n        /* \"@openzeppelin/contracts/utils/ReentrancyGuard.sol\":1713:1714  1 */\n      0x01\n        /* \"@openzeppelin/contracts/utils/ReentrancyGuard.sol\":2924:2931  _status */\n      0x00\n        /* \"@openzeppelin/contracts/utils/ReentrancyGuard.sol\":2924:2945  _status = NOT_ENTERED */\n      sstore\n        /* \"@openzeppelin/contracts/utils/ReentrancyGuard.sol\":2744:2952  function _nonReentrantAfter() private {... */\n      jump\n        /* \".deploys/use-cases/EnglishAuction.sol\":1865:2599  function startAuction(uint256 tokenId, uint256 amount, bytes calldata data, uint256 startingBid)... */\n    tag_27:\n        /* \"@openzeppelin/contracts/utils/ReentrancyGuard.sol\":2356:2377  _nonReentrantBefore() */\n      tag_77\n        /* \"@openzeppelin/contracts/utils/ReentrancyGuard.sol\":2356:2375  _nonReentrantBefore */\n      tag_53\n        /* \"@openzeppelin/contracts/utils/ReentrancyGuard.sol\":2356:2377  _nonReentrantBefore() */\n      jump\t// in\n    tag_77:\n        /* \".deploys/use-cases/EnglishAuction.sol\":2018:2027  s_started */\n      and(0xff, sload(0x01))\n        /* \".deploys/use-cases/EnglishAuction.sol\":2014:2074  if (s_started) revert EnglishAuction_AuctionAlreadyStarted() */\n      iszero\n      tag_79\n      jumpi\n        /* \".deploys/use-cases/EnglishAuction.sol\":2036:2074  EnglishAuction_AuctionAlreadyStarted() */\n      mload(0x40)\n      shl(0xe0, 0x05d8f453)\n      dup2\n      mstore\n      0x04\n      add\n      mload(0x40)\n      dup1\n      swap2\n      sub\n      swap1\n      revert\n        /* \".deploys/use-cases/EnglishAuction.sol\":2014:2074  if (s_started) revert EnglishAuction_AuctionAlreadyStarted() */\n    tag_79:\n        /* \".deploys/use-cases/EnglishAuction.sol\":2088:2098  msg.sender */\n      caller\n      sub(shl(0xa0, 0x01), 0x01)\n        /* \".deploys/use-cases/EnglishAuction.sol\":2102:2110  i_seller */\n      immutable(\"0xc47ece0ffae697632ce145a7086cbcf260f7fa60876ff2606761ea2b7581ee76\")\n        /* \".deploys/use-cases/EnglishAuction.sol\":2088:2110  msg.sender != i_seller */\n      and\n      eq\n        /* \".deploys/use-cases/EnglishAuction.sol\":2084:2153  if (msg.sender != i_seller) revert EnglishAuction_OnlySellerCanCall() */\n      tag_80\n      jumpi\n        /* \".deploys/use-cases/EnglishAuction.sol\":2119:2153  EnglishAuction_OnlySellerCanCall() */\n      mload(0x40)\n      shl(0xe0, 0xfc375da7)\n      dup2\n      mstore\n      0x04\n      add\n      mload(0x40)\n      dup1\n      swap2\n      sub\n      swap1\n      revert\n        /* \".deploys/use-cases/EnglishAuction.sol\":2084:2153  if (msg.sender != i_seller) revert EnglishAuction_OnlySellerCanCall() */\n    tag_80:\n        /* \".deploys/use-cases/EnglishAuction.sol\":2164:2270  IERC1155(i_fractionalizedRealEstateToken).safeTransferFrom(i_seller, address(this), tokenId, amount, data) */\n      mload(0x40)\n      shl(0xe1, 0x79212195)\n      dup2\n      mstore\n      sub(shl(0xa0, 0x01), 0x01)\n        /* \".deploys/use-cases/EnglishAuction.sol\":2173:2204  i_fractionalizedRealEstateToken */\n      immutable(\"0x6304e47846f882085b0f4b1a184252ae95ffe5e2a02daf39c014f492dcb1441c\")\n        /* \".deploys/use-cases/EnglishAuction.sol\":2164:2222  IERC1155(i_fractionalizedRealEstateToken).safeTransferFrom */\n      and\n      swap1\n      0xf242432a\n      swap1\n        /* \".deploys/use-cases/EnglishAuction.sol\":2164:2270  IERC1155(i_fractionalizedRealEstateToken).safeTransferFrom(i_seller, address(this), tokenId, amount, data) */\n      tag_81\n      swap1\n        /* \".deploys/use-cases/EnglishAuction.sol\":2223:2231  i_seller */\n      immutable(\"0xc47ece0ffae697632ce145a7086cbcf260f7fa60876ff2606761ea2b7581ee76\")\n      swap1\n        /* \".deploys/use-cases/EnglishAuction.sol\":2241:2245  this */\n      address\n      swap1\n        /* \".deploys/use-cases/EnglishAuction.sol\":2248:2255  tokenId */\n      dup11\n      swap1\n        /* \".deploys/use-cases/EnglishAuction.sol\":2257:2263  amount */\n      dup11\n      swap1\n        /* \".deploys/use-cases/EnglishAuction.sol\":2265:2269  data */\n      dup11\n      swap1\n      dup11\n      swap1\n        /* \".deploys/use-cases/EnglishAuction.sol\":2164:2270  IERC1155(i_fractionalizedRealEstateToken).safeTransferFrom(i_seller, address(this), tokenId, amount, data) */\n      0x04\n      add\n      tag_82\n      jump\t// in\n    tag_81:\n      0x00\n      mload(0x40)\n      dup1\n      dup4\n      sub\n      dup2\n      0x00\n      dup8\n      dup1\n      extcodesize\n      iszero\n      dup1\n      iszero\n      tag_83\n      jumpi\n      0x00\n      dup1\n      revert\n    tag_83:\n      pop\n      gas\n      call\n      iszero\n      dup1\n      iszero\n      tag_85\n      jumpi\n      returndatasize\n      0x00\n      dup1\n      returndatacopy\n      revert(0x00, returndatasize)\n    tag_85:\n      pop\n      pop\n        /* \".deploys/use-cases/EnglishAuction.sol\":2293:2297  true */\n      0x01\n        /* \".deploys/use-cases/EnglishAuction.sol\":2281:2297  s_started = true */\n      dup1\n      sload\n      not(0xff)\n      and\n      dup2\n      or\n      swap1\n      sstore\n      pop\n        /* \".deploys/use-cases/EnglishAuction.sol\":2324:2367  SafeCast.toUint48(block.timestamp + 7 days) */\n      tag_86\n      swap1\n      pop\n        /* \".deploys/use-cases/EnglishAuction.sol\":2342:2366  block.timestamp + 7 days */\n      tag_87\n        /* \".deploys/use-cases/EnglishAuction.sol\":2342:2357  block.timestamp */\n      timestamp\n        /* \".deploys/use-cases/EnglishAuction.sol\":2360:2366  7 days */\n      0x093a80\n        /* \".deploys/use-cases/EnglishAuction.sol\":2342:2366  block.timestamp + 7 days */\n      tag_59\n      jump\t// in\n    tag_87:\n        /* \".deploys/use-cases/EnglishAuction.sol\":2324:2341  SafeCast.toUint48 */\n      tag_88\n        /* \".deploys/use-cases/EnglishAuction.sol\":2324:2367  SafeCast.toUint48(block.timestamp + 7 days) */\n      jump\t// in\n    tag_86:\n        /* \".deploys/use-cases/EnglishAuction.sol\":2307:2321  s_endTimestamp */\n      0x01\n        /* \".deploys/use-cases/EnglishAuction.sol\":2307:2367  s_endTimestamp = SafeCast.toUint48(block.timestamp + 7 days) */\n      dup1\n      sload\n        /* \".deploys/use-cases/EnglishAuction.sol\":2377:2395  s_tokenIdOnAuction */\n      0x03\n        /* \".deploys/use-cases/EnglishAuction.sol\":2377:2405  s_tokenIdOnAuction = tokenId */\n      dup9\n      swap1\n      sstore\n        /* \".deploys/use-cases/EnglishAuction.sol\":2415:2446  s_fractionalizedAmountOnAuction */\n      0x04\n        /* \".deploys/use-cases/EnglishAuction.sol\":2415:2455  s_fractionalizedAmountOnAuction = amount */\n      dup8\n      swap1\n      sstore\n      not(sub(shl(0xd8, 0x01), 0x0100))\n        /* \".deploys/use-cases/EnglishAuction.sol\":2465:2493  s_highestBidder = msg.sender */\n      and\n        /* \".deploys/use-cases/EnglishAuction.sol\":2307:2367  s_endTimestamp = SafeCast.toUint48(block.timestamp + 7 days) */\n      0x0100\n      0xffffffffffff\n      swap4\n      dup5\n      and\n      dup2\n      mul\n      not(sub(shl(0xd8, 0x01), shl(0x38, 0x01)))\n        /* \".deploys/use-cases/EnglishAuction.sol\":2465:2493  s_highestBidder = msg.sender */\n      and\n      swap2\n      swap1\n      swap2\n      or\n        /* \".deploys/use-cases/EnglishAuction.sol\":2483:2493  msg.sender */\n      caller\n      shl(0x38, 0x01)\n        /* \".deploys/use-cases/EnglishAuction.sol\":2465:2493  s_highestBidder = msg.sender */\n      mul\n      or\n      swap2\n      dup3\n      swap1\n      sstore\n      0x02\n        /* \".deploys/use-cases/EnglishAuction.sol\":2503:2529  s_highestBid = startingBid */\n      dup5\n      swap1\n      sstore\n        /* \".deploys/use-cases/EnglishAuction.sol\":2545:2592  AuctionStarted(tokenId, amount, s_endTimestamp) */\n      mload(0x40)\n        /* \".deploys/use-cases/EnglishAuction.sol\":2577:2591  s_endTimestamp */\n      swap2\n      div\n      swap1\n      swap2\n      and\n      swap1\n        /* \".deploys/use-cases/EnglishAuction.sol\":2415:2455  s_fractionalizedAmountOnAuction = amount */\n      dup6\n      swap1\n        /* \".deploys/use-cases/EnglishAuction.sol\":2377:2405  s_tokenIdOnAuction = tokenId */\n      dup8\n      swap1\n        /* \".deploys/use-cases/EnglishAuction.sol\":2545:2592  AuctionStarted(tokenId, amount, s_endTimestamp) */\n      0x768bd78ab1ec57846676a68a1e1734eb6f53ac34b93517c174e9a36a96a27139\n      swap1\n      0x00\n      swap1\n      log4\n        /* \"@openzeppelin/contracts/utils/ReentrancyGuard.sol\":2398:2418  _nonReentrantAfter() */\n      tag_89\n        /* \"@openzeppelin/contracts/utils/ReentrancyGuard.sol\":1713:1714  1 */\n      0x01\n        /* \"@openzeppelin/contracts/utils/ReentrancyGuard.sol\":2924:2931  _status */\n      0x00\n        /* \"@openzeppelin/contracts/utils/ReentrancyGuard.sol\":2924:2945  _status = NOT_ENTERED */\n      sstore\n        /* \"@openzeppelin/contracts/utils/ReentrancyGuard.sol\":2744:2952  function _nonReentrantAfter() private {... */\n      jump\n        /* \"@openzeppelin/contracts/utils/ReentrancyGuard.sol\":2398:2418  _nonReentrantAfter() */\n    tag_89:\n        /* \".deploys/use-cases/EnglishAuction.sol\":1865:2599  function startAuction(uint256 tokenId, uint256 amount, bytes calldata data, uint256 startingBid)... */\n      pop\n      pop\n      pop\n      pop\n      pop\n      jump\t// out\n        /* \".deploys/use-cases/EnglishAuction.sol\":4651:5088  function onERC1155BatchReceived(... */\n    tag_32:\n        /* \".deploys/use-cases/EnglishAuction.sol\":4876:4882  bytes4 */\n      0x00\n        /* \".deploys/use-cases/EnglishAuction.sol\":4898:4908  msg.sender */\n      caller\n      sub(shl(0xa0, 0x01), 0x01)\n        /* \".deploys/use-cases/EnglishAuction.sol\":4920:4951  i_fractionalizedRealEstateToken */\n      immutable(\"0x6304e47846f882085b0f4b1a184252ae95ffe5e2a02daf39c014f492dcb1441c\")\n        /* \".deploys/use-cases/EnglishAuction.sol\":4898:4952  msg.sender != address(i_fractionalizedRealEstateToken) */\n      and\n      eq\n        /* \".deploys/use-cases/EnglishAuction.sol\":4894:5016  if (msg.sender != address(i_fractionalizedRealEstateToken)) {... */\n      tag_91\n      jumpi\n        /* \".deploys/use-cases/EnglishAuction.sol\":4975:5005  OnlyRealEstateTokenSupported() */\n      mload(0x40)\n      shl(0xe1, 0x4f2a2fb5)\n      dup2\n      mstore\n      0x04\n      add\n      mload(0x40)\n      dup1\n      swap2\n      sub\n      swap1\n      revert\n        /* \".deploys/use-cases/EnglishAuction.sol\":4894:5016  if (msg.sender != address(i_fractionalizedRealEstateToken)) {... */\n    tag_91:\n      pop\n      shl(0xe0, 0xbc197c81)\n        /* \".deploys/use-cases/EnglishAuction.sol\":4651:5088  function onERC1155BatchReceived(... */\n      swap9\n      swap8\n      pop\n      pop\n      pop\n      pop\n      pop\n      pop\n      pop\n      pop\n      jump\t// out\n        /* \".deploys/use-cases/EnglishAuction.sol\":4242:4645  function onERC1155Received(... */\n    tag_44:\n        /* \".deploys/use-cases/EnglishAuction.sol\":4438:4444  bytes4 */\n      0x00\n        /* \".deploys/use-cases/EnglishAuction.sol\":4460:4470  msg.sender */\n      caller\n      sub(shl(0xa0, 0x01), 0x01)\n        /* \".deploys/use-cases/EnglishAuction.sol\":4482:4513  i_fractionalizedRealEstateToken */\n      immutable(\"0x6304e47846f882085b0f4b1a184252ae95ffe5e2a02daf39c014f492dcb1441c\")\n        /* \".deploys/use-cases/EnglishAuction.sol\":4460:4514  msg.sender != address(i_fractionalizedRealEstateToken) */\n      and\n      eq\n        /* \".deploys/use-cases/EnglishAuction.sol\":4456:4578  if (msg.sender != address(i_fractionalizedRealEstateToken)) {... */\n      tag_94\n      jumpi\n        /* \".deploys/use-cases/EnglishAuction.sol\":4537:4567  OnlyRealEstateTokenSupported() */\n      mload(0x40)\n      shl(0xe1, 0x4f2a2fb5)\n      dup2\n      mstore\n      0x04\n      add\n      mload(0x40)\n      dup1\n      swap2\n      sub\n      swap1\n      revert\n        /* \".deploys/use-cases/EnglishAuction.sol\":4456:4578  if (msg.sender != address(i_fractionalizedRealEstateToken)) {... */\n    tag_94:\n      pop\n      shl(0xe0, 0xf23a6e61)\n        /* \".deploys/use-cases/EnglishAuction.sol\":4242:4645  function onERC1155Received(... */\n      swap7\n      swap6\n      pop\n      pop\n      pop\n      pop\n      pop\n      pop\n      jump\t// out\n        /* \".deploys/use-cases/EnglishAuction.sol\":3579:4236  function endAuction() external nonReentrant {... */\n    tag_48:\n        /* \"@openzeppelin/contracts/utils/ReentrancyGuard.sol\":2356:2377  _nonReentrantBefore() */\n      tag_96\n        /* \"@openzeppelin/contracts/utils/ReentrancyGuard.sol\":2356:2375  _nonReentrantBefore */\n      tag_53\n        /* \"@openzeppelin/contracts/utils/ReentrancyGuard.sol\":2356:2377  _nonReentrantBefore() */\n      jump\t// in\n    tag_96:\n        /* \".deploys/use-cases/EnglishAuction.sol\":3638:3647  s_started */\n      and(0xff, sload(0x01))\n        /* \".deploys/use-cases/EnglishAuction.sol\":3633:3693  if (!s_started) revert EnglishAuction_NoAuctionsInProgress() */\n      tag_98\n      jumpi\n        /* \".deploys/use-cases/EnglishAuction.sol\":3656:3693  EnglishAuction_NoAuctionsInProgress() */\n      mload(0x40)\n      shl(0xe1, 0x6e66e97d)\n      dup2\n      mstore\n      0x04\n      add\n      mload(0x40)\n      dup1\n      swap2\n      sub\n      swap1\n      revert\n        /* \".deploys/use-cases/EnglishAuction.sol\":3633:3693  if (!s_started) revert EnglishAuction_NoAuctionsInProgress() */\n    tag_98:\n        /* \".deploys/use-cases/EnglishAuction.sol\":3725:3739  s_endTimestamp */\n      sload(0x01)\n      0x0100\n      swap1\n      div\n      0xffffffffffff\n      and\n        /* \".deploys/use-cases/EnglishAuction.sol\":3707:3722  block.timestamp */\n      timestamp\n        /* \".deploys/use-cases/EnglishAuction.sol\":3707:3739  block.timestamp < s_endTimestamp */\n      lt\n        /* \".deploys/use-cases/EnglishAuction.sol\":3703:3778  if (block.timestamp < s_endTimestamp) revert EnglishAuction_TooEarlyToEnd() */\n      iszero\n      tag_99\n      jumpi\n        /* \".deploys/use-cases/EnglishAuction.sol\":3748:3778  EnglishAuction_TooEarlyToEnd() */\n      mload(0x40)\n      shl(0xe2, 0x195c3b17)\n      dup2\n      mstore\n      0x04\n      add\n      mload(0x40)\n      dup1\n      swap2\n      sub\n      swap1\n      revert\n        /* \".deploys/use-cases/EnglishAuction.sol\":3703:3778  if (block.timestamp < s_endTimestamp) revert EnglishAuction_TooEarlyToEnd() */\n    tag_99:\n        /* \".deploys/use-cases/EnglishAuction.sol\":3789:3798  s_started */\n      0x01\n        /* \".deploys/use-cases/EnglishAuction.sol\":3789:3806  s_started = false */\n      dup1\n      sload\n      not(0xff)\n      and\n      swap1\n      dup2\n      swap1\n      sstore\n        /* \".deploys/use-cases/EnglishAuction.sol\":3921:3939  s_tokenIdOnAuction */\n      sload(0x03)\n        /* \".deploys/use-cases/EnglishAuction.sol\":3941:3972  s_fractionalizedAmountOnAuction */\n      0x04\n      dup1\n      sload\n        /* \".deploys/use-cases/EnglishAuction.sol\":3817:3986  IERC1155(i_fractionalizedRealEstateToken).safeTransferFrom(... */\n      mload(0x40)\n      shl(0xe1, 0x79212195)\n      dup2\n      mstore\n        /* \".deploys/use-cases/EnglishAuction.sol\":3897:3901  this */\n      address\n        /* \".deploys/use-cases/EnglishAuction.sol\":3817:3986  IERC1155(i_fractionalizedRealEstateToken).safeTransferFrom(... */\n      swap3\n      dup2\n      add\n        /* \"#utility.yul\":6110:6144   */\n      swap3\n      swap1\n      swap3\n      mstore\n      shl(0x38, 0x01)\n        /* \".deploys/use-cases/EnglishAuction.sol\":3904:3919  s_highestBidder */\n      swap1\n      swap4\n      div\n      sub(shl(0xa0, 0x01), 0x01)\n      swap1\n      dup2\n      and\n        /* \"#utility.yul\":6160:6178   */\n      0x24\n      dup4\n      add\n        /* \"#utility.yul\":6153:6196   */\n      mstore\n        /* \"#utility.yul\":6212:6230   */\n      0x44\n      dup3\n      add\n        /* \"#utility.yul\":6205:6239   */\n      swap3\n      swap1\n      swap3\n      mstore\n        /* \"#utility.yul\":6255:6273   */\n      0x64\n      dup2\n      add\n        /* \"#utility.yul\":6248:6282   */\n      swap3\n      swap1\n      swap3\n      mstore\n        /* \"#utility.yul\":6090:6093   */\n      0xa0\n        /* \"#utility.yul\":6298:6317   */\n      0x84\n      dup4\n      add\n        /* \"#utility.yul\":6291:6323   */\n      mstore\n      0x00\n        /* \"#utility.yul\":6339:6358   */\n      0xa4\n      dup4\n      add\n        /* \"#utility.yul\":6332:6362   */\n      mstore\n        /* \".deploys/use-cases/EnglishAuction.sol\":3826:3857  i_fractionalizedRealEstateToken */\n      immutable(\"0x6304e47846f882085b0f4b1a184252ae95ffe5e2a02daf39c014f492dcb1441c\")\n        /* \".deploys/use-cases/EnglishAuction.sol\":3817:3875  IERC1155(i_fractionalizedRealEstateToken).safeTransferFrom */\n      and\n      swap1\n      0xf242432a\n      swap1\n        /* \"#utility.yul\":6379:6398   */\n      0xc4\n      add\n        /* \".deploys/use-cases/EnglishAuction.sol\":3817:3986  IERC1155(i_fractionalizedRealEstateToken).safeTransferFrom(... */\n      0x00\n      mload(0x40)\n      dup1\n      dup4\n      sub\n      dup2\n      0x00\n      dup8\n      dup1\n      extcodesize\n      iszero\n      dup1\n      iszero\n      tag_102\n      jumpi\n      0x00\n      dup1\n      revert\n    tag_102:\n      pop\n      gas\n      call\n      iszero\n      dup1\n      iszero\n      tag_104\n      jumpi\n      returndatasize\n      0x00\n      dup1\n      returndatacopy\n      revert(0x00, returndatasize)\n    tag_104:\n      pop\n      pop\n        /* \".deploys/use-cases/EnglishAuction.sol\":4033:4045  s_highestBid */\n      sload(0x02)\n        /* \".deploys/use-cases/EnglishAuction.sol\":4012:4050  i_seller.call{value: s_highestBid}(\"\") */\n      mload(0x40)\n        /* \".deploys/use-cases/EnglishAuction.sol\":3998:4007  bool sent */\n      0x00\n      swap4\n      pop\n      sub(shl(0xa0, 0x01), 0x01)\n        /* \".deploys/use-cases/EnglishAuction.sol\":4012:4020  i_seller */\n      immutable(\"0xc47ece0ffae697632ce145a7086cbcf260f7fa60876ff2606761ea2b7581ee76\")\n        /* \".deploys/use-cases/EnglishAuction.sol\":4012:4025  i_seller.call */\n      and\n      swap3\n      pop\n        /* \".deploys/use-cases/EnglishAuction.sol\":3998:4007  bool sent */\n      dup4\n        /* \".deploys/use-cases/EnglishAuction.sol\":4012:4050  i_seller.call{value: s_highestBid}(\"\") */\n      dup2\n        /* \".deploys/use-cases/EnglishAuction.sol\":3998:4007  bool sent */\n      dup2\n        /* \".deploys/use-cases/EnglishAuction.sol\":4012:4050  i_seller.call{value: s_highestBid}(\"\") */\n      dup2\n        /* \".deploys/use-cases/EnglishAuction.sol\":4033:4045  s_highestBid */\n      dup6\n        /* \".deploys/use-cases/EnglishAuction.sol\":4012:4025  i_seller.call */\n      dup8\n        /* \".deploys/use-cases/EnglishAuction.sol\":4012:4050  i_seller.call{value: s_highestBid}(\"\") */\n      gas\n      call\n      swap3\n      pop\n      pop\n      pop\n      returndatasize\n      dup1\n      0x00\n      dup2\n      eq\n      tag_108\n      jumpi\n      mload(0x40)\n      swap2\n      pop\n      and(add(returndatasize, 0x3f), not(0x1f))\n      dup3\n      add\n      0x40\n      mstore\n      returndatasize\n      dup3\n      mstore\n      returndatasize\n      0x00\n      0x20\n      dup5\n      add\n      returndatacopy\n      jump(tag_107)\n    tag_108:\n      0x60\n      swap2\n      pop\n    tag_107:\n      pop\n        /* \".deploys/use-cases/EnglishAuction.sol\":3997:4050  (bool sent,) = i_seller.call{value: s_highestBid}(\"\") */\n      pop\n      swap1\n      pop\n        /* \".deploys/use-cases/EnglishAuction.sol\":4065:4069  sent */\n      dup1\n        /* \".deploys/use-cases/EnglishAuction.sol\":4060:4117  if (!sent) revert FailedToSendEth(i_seller, s_highestBid) */\n      tag_109\n      jumpi\n        /* \".deploys/use-cases/EnglishAuction.sol\":4104:4116  s_highestBid */\n      sload(0x02)\n        /* \".deploys/use-cases/EnglishAuction.sol\":4078:4117  FailedToSendEth(i_seller, s_highestBid) */\n      mload(0x40)\n      shl(0xe0, 0x88ca2dd1)\n      dup2\n      mstore\n      sub(shl(0xa0, 0x01), 0x01)\n        /* \".deploys/use-cases/EnglishAuction.sol\":4094:4102  i_seller */\n      immutable(\"0xc47ece0ffae697632ce145a7086cbcf260f7fa60876ff2606761ea2b7581ee76\")\n        /* \"#utility.yul\":4951:4983   */\n      and\n        /* \".deploys/use-cases/EnglishAuction.sol\":4078:4117  FailedToSendEth(i_seller, s_highestBid) */\n      0x04\n      dup3\n      add\n        /* \"#utility.yul\":4933:4984   */\n      mstore\n        /* \"#utility.yul\":5000:5018   */\n      0x24\n      dup2\n      add\n        /* \"#utility.yul\":4993:5027   */\n      swap2\n      swap1\n      swap2\n      mstore\n        /* \"#utility.yul\":4906:4924   */\n      0x44\n      add\n        /* \".deploys/use-cases/EnglishAuction.sol\":4078:4117  FailedToSendEth(i_seller, s_highestBid) */\n      tag_73\n        /* \"#utility.yul\":4759:5033   */\n      jump\n        /* \".deploys/use-cases/EnglishAuction.sol\":4060:4117  if (!sent) revert FailedToSendEth(i_seller, s_highestBid) */\n    tag_109:\n        /* \".deploys/use-cases/EnglishAuction.sol\":4216:4228  s_highestBid */\n      sload(0x02)\n        /* \".deploys/use-cases/EnglishAuction.sol\":4199:4214  s_highestBidder */\n      sload(0x01)\n        /* \".deploys/use-cases/EnglishAuction.sol\":4146:4164  s_tokenIdOnAuction */\n      sload(0x03)\n        /* \".deploys/use-cases/EnglishAuction.sol\":4166:4197  s_fractionalizedAmountOnAuction */\n      sload(0x04)\n        /* \".deploys/use-cases/EnglishAuction.sol\":4133:4229  AuctionEnded(s_tokenIdOnAuction, s_fractionalizedAmountOnAuction, s_highestBidder, s_highestBid) */\n      mload(0x40)\n        /* \"#utility.yul\":3586:3611   */\n      swap1\n      dup2\n      mstore\n      shl(0x38, 0x01)\n        /* \".deploys/use-cases/EnglishAuction.sol\":4199:4214  s_highestBidder */\n      swap1\n      swap3\n      div\n      sub(shl(0xa0, 0x01), 0x01)\n      and\n      swap2\n        /* \".deploys/use-cases/EnglishAuction.sol\":4133:4229  AuctionEnded(s_tokenIdOnAuction, s_fractionalizedAmountOnAuction, s_highestBidder, s_highestBid) */\n      0x2b2b6e4d2c04cd042f5fb49ebe25d9518176619265c44683e96df25989321362\n      swap1\n        /* \"#utility.yul\":3574:3576   */\n      0x20\n        /* \"#utility.yul\":3559:3577   */\n      add\n        /* \".deploys/use-cases/EnglishAuction.sol\":4133:4229  AuctionEnded(s_tokenIdOnAuction, s_fractionalizedAmountOnAuction, s_highestBidder, s_highestBid) */\n      mload(0x40)\n      dup1\n      swap2\n      sub\n      swap1\n      log4\n        /* \".deploys/use-cases/EnglishAuction.sol\":3623:4236  {... */\n      pop\n        /* \"@openzeppelin/contracts/utils/ReentrancyGuard.sol\":2398:2418  _nonReentrantAfter() */\n      tag_60\n        /* \"@openzeppelin/contracts/utils/ReentrancyGuard.sol\":1713:1714  1 */\n      0x01\n        /* \"@openzeppelin/contracts/utils/ReentrancyGuard.sol\":2924:2931  _status */\n      0x00\n        /* \"@openzeppelin/contracts/utils/ReentrancyGuard.sol\":2924:2945  _status = NOT_ENTERED */\n      sstore\n        /* \"@openzeppelin/contracts/utils/ReentrancyGuard.sol\":2744:2952  function _nonReentrantAfter() private {... */\n      jump\n        /* \"@openzeppelin/contracts/utils/ReentrancyGuard.sol\":2431:2738  function _nonReentrantBefore() private {... */\n    tag_53:\n        /* \"@openzeppelin/contracts/utils/ReentrancyGuard.sol\":1755:1756  2 */\n      0x02\n        /* \"@openzeppelin/contracts/utils/ReentrancyGuard.sol\":2558:2565  _status */\n      sload(0x00)\n        /* \"@openzeppelin/contracts/utils/ReentrancyGuard.sol\":2558:2576  _status == ENTERED */\n      sub\n        /* \"@openzeppelin/contracts/utils/ReentrancyGuard.sol\":2554:2640  if (_status == ENTERED) {... */\n      tag_114\n      jumpi\n        /* \"@openzeppelin/contracts/utils/ReentrancyGuard.sol\":2599:2629  ReentrancyGuardReentrantCall() */\n      mload(0x40)\n      shl(0xe0, 0x3ee5aeb5)\n      dup2\n      mstore\n      0x04\n      add\n      mload(0x40)\n      dup1\n      swap2\n      sub\n      swap1\n      revert\n        /* \"@openzeppelin/contracts/utils/ReentrancyGuard.sol\":2554:2640  if (_status == ENTERED) {... */\n    tag_114:\n        /* \"@openzeppelin/contracts/utils/ReentrancyGuard.sol\":1755:1756  2 */\n      0x02\n        /* \"@openzeppelin/contracts/utils/ReentrancyGuard.sol\":2714:2721  _status */\n      0x00\n        /* \"@openzeppelin/contracts/utils/ReentrancyGuard.sol\":2714:2731  _status = ENTERED */\n      sstore\n        /* \"@openzeppelin/contracts/utils/ReentrancyGuard.sol\":2431:2738  function _nonReentrantBefore() private {... */\n      jump\t// out\n        /* \"@openzeppelin/contracts/utils/math/SafeCast.sol\":14291:14504  function toUint48(uint256 value) internal pure returns (uint48) {... */\n    tag_88:\n        /* \"@openzeppelin/contracts/utils/math/SafeCast.sol\":14347:14353  uint48 */\n      0x00\n        /* \"@openzeppelin/contracts/utils/math/SafeCast.sol\":14377:14393  type(uint48).max */\n      0xffffffffffff\n        /* \"@openzeppelin/contracts/utils/math/SafeCast.sol\":14369:14393  value > type(uint48).max */\n      dup3\n      gt\n        /* \"@openzeppelin/contracts/utils/math/SafeCast.sol\":14365:14468  if (value > type(uint48).max) {... */\n      iszero\n      tag_117\n      jumpi\n        /* \"@openzeppelin/contracts/utils/math/SafeCast.sol\":14416:14457  SafeCastOverflowedUintDowncast(48, value) */\n      mload(0x40)\n      shl(0xe4, 0x06dfcc65)\n      dup2\n      mstore\n        /* \"@openzeppelin/contracts/utils/math/SafeCast.sol\":14447:14449  48 */\n      0x30\n        /* \"@openzeppelin/contracts/utils/math/SafeCast.sol\":14416:14457  SafeCastOverflowedUintDowncast(48, value) */\n      0x04\n      dup3\n      add\n        /* \"#utility.yul\":6590:6626   */\n      mstore\n        /* \"#utility.yul\":6642:6660   */\n      0x24\n      dup2\n      add\n        /* \"#utility.yul\":6635:6669   */\n      dup4\n      swap1\n      mstore\n        /* \"#utility.yul\":6563:6581   */\n      0x44\n      add\n        /* \"@openzeppelin/contracts/utils/math/SafeCast.sol\":14416:14457  SafeCastOverflowedUintDowncast(48, value) */\n      tag_73\n        /* \"#utility.yul\":6409:6675   */\n      jump\n        /* \"@openzeppelin/contracts/utils/math/SafeCast.sol\":14365:14468  if (value > type(uint48).max) {... */\n    tag_117:\n      pop\n        /* \"@openzeppelin/contracts/utils/math/SafeCast.sol\":14491:14496  value */\n      swap1\n        /* \"@openzeppelin/contracts/utils/math/SafeCast.sol\":14291:14504  function toUint48(uint256 value) internal pure returns (uint48) {... */\n      jump\t// out\n        /* \"#utility.yul\":14:300   */\n    tag_14:\n        /* \"#utility.yul\":72:78   */\n      0x00\n        /* \"#utility.yul\":125:127   */\n      0x20\n        /* \"#utility.yul\":113:122   */\n      dup3\n        /* \"#utility.yul\":104:111   */\n      dup5\n        /* \"#utility.yul\":100:123   */\n      sub\n        /* \"#utility.yul\":96:128   */\n      slt\n        /* \"#utility.yul\":93:145   */\n      iszero\n      tag_125\n      jumpi\n        /* \"#utility.yul\":141:142   */\n      0x00\n        /* \"#utility.yul\":138:139   */\n      dup1\n        /* \"#utility.yul\":131:143   */\n      revert\n        /* \"#utility.yul\":93:145   */\n    tag_125:\n        /* \"#utility.yul\":167:190   */\n      dup2\n      calldataload\n      not(sub(shl(0xe0, 0x01), 0x01))\n        /* \"#utility.yul\":219:251   */\n      dup2\n      and\n        /* \"#utility.yul\":209:252   */\n      dup2\n      eq\n        /* \"#utility.yul\":199:270   */\n      tag_126\n      jumpi\n        /* \"#utility.yul\":266:267   */\n      0x00\n        /* \"#utility.yul\":263:264   */\n      dup1\n        /* \"#utility.yul\":256:268   */\n      revert\n        /* \"#utility.yul\":199:270   */\n    tag_126:\n        /* \"#utility.yul\":289:294   */\n      swap4\n        /* \"#utility.yul\":14:300   */\n      swap3\n      pop\n      pop\n      pop\n      jump\t// out\n        /* \"#utility.yul\":497:844   */\n    tag_120:\n        /* \"#utility.yul\":548:556   */\n      0x00\n        /* \"#utility.yul\":558:564   */\n      dup1\n        /* \"#utility.yul\":612:615   */\n      dup4\n        /* \"#utility.yul\":605:609   */\n      0x1f\n        /* \"#utility.yul\":597:603   */\n      dup5\n        /* \"#utility.yul\":593:610   */\n      add\n        /* \"#utility.yul\":589:616   */\n      slt\n        /* \"#utility.yul\":579:634   */\n      tag_129\n      jumpi\n        /* \"#utility.yul\":630:631   */\n      0x00\n        /* \"#utility.yul\":627:628   */\n      dup1\n        /* \"#utility.yul\":620:632   */\n      revert\n        /* \"#utility.yul\":579:634   */\n    tag_129:\n      pop\n        /* \"#utility.yul\":653:673   */\n      dup2\n      calldataload\n        /* \"#utility.yul\":696:714   */\n      0xffffffffffffffff\n        /* \"#utility.yul\":685:715   */\n      dup2\n      gt\n        /* \"#utility.yul\":682:732   */\n      iszero\n      tag_130\n      jumpi\n        /* \"#utility.yul\":728:729   */\n      0x00\n        /* \"#utility.yul\":725:726   */\n      dup1\n        /* \"#utility.yul\":718:730   */\n      revert\n        /* \"#utility.yul\":682:732   */\n    tag_130:\n        /* \"#utility.yul\":765:769   */\n      0x20\n        /* \"#utility.yul\":757:763   */\n      dup4\n        /* \"#utility.yul\":753:770   */\n      add\n        /* \"#utility.yul\":741:770   */\n      swap2\n      pop\n        /* \"#utility.yul\":817:820   */\n      dup4\n        /* \"#utility.yul\":810:814   */\n      0x20\n        /* \"#utility.yul\":801:807   */\n      dup3\n        /* \"#utility.yul\":793:799   */\n      dup6\n        /* \"#utility.yul\":789:808   */\n      add\n        /* \"#utility.yul\":785:815   */\n      add\n        /* \"#utility.yul\":782:821   */\n      gt\n        /* \"#utility.yul\":779:838   */\n      iszero\n      tag_131\n      jumpi\n        /* \"#utility.yul\":834:835   */\n      0x00\n        /* \"#utility.yul\":831:832   */\n      dup1\n        /* \"#utility.yul\":824:836   */\n      revert\n        /* \"#utility.yul\":779:838   */\n    tag_131:\n        /* \"#utility.yul\":497:844   */\n      swap3\n      pop\n      swap3\n      swap1\n      pop\n      jump\t// out\n        /* \"#utility.yul\":849:1463   */\n    tag_26:\n        /* \"#utility.yul\":946:952   */\n      0x00\n        /* \"#utility.yul\":954:960   */\n      dup1\n        /* \"#utility.yul\":962:968   */\n      0x00\n        /* \"#utility.yul\":970:976   */\n      dup1\n        /* \"#utility.yul\":978:984   */\n      0x00\n        /* \"#utility.yul\":1031:1034   */\n      0x80\n        /* \"#utility.yul\":1019:1028   */\n      dup7\n        /* \"#utility.yul\":1010:1017   */\n      dup9\n        /* \"#utility.yul\":1006:1029   */\n      sub\n        /* \"#utility.yul\":1002:1035   */\n      slt\n        /* \"#utility.yul\":999:1052   */\n      iszero\n      tag_133\n      jumpi\n        /* \"#utility.yul\":1048:1049   */\n      0x00\n        /* \"#utility.yul\":1045:1046   */\n      dup1\n        /* \"#utility.yul\":1038:1050   */\n      revert\n        /* \"#utility.yul\":999:1052   */\n    tag_133:\n        /* \"#utility.yul\":1084:1093   */\n      dup6\n        /* \"#utility.yul\":1071:1094   */\n      calldataload\n        /* \"#utility.yul\":1061:1094   */\n      swap5\n      pop\n        /* \"#utility.yul\":1141:1143   */\n      0x20\n        /* \"#utility.yul\":1130:1139   */\n      dup7\n        /* \"#utility.yul\":1126:1144   */\n      add\n        /* \"#utility.yul\":1113:1145   */\n      calldataload\n        /* \"#utility.yul\":1103:1145   */\n      swap4\n      pop\n        /* \"#utility.yul\":1196:1198   */\n      0x40\n        /* \"#utility.yul\":1185:1194   */\n      dup7\n        /* \"#utility.yul\":1181:1199   */\n      add\n        /* \"#utility.yul\":1168:1200   */\n      calldataload\n        /* \"#utility.yul\":1223:1241   */\n      0xffffffffffffffff\n        /* \"#utility.yul\":1215:1221   */\n      dup2\n        /* \"#utility.yul\":1212:1242   */\n      gt\n        /* \"#utility.yul\":1209:1259   */\n      iszero\n      tag_134\n      jumpi\n        /* \"#utility.yul\":1255:1256   */\n      0x00\n        /* \"#utility.yul\":1252:1253   */\n      dup1\n        /* \"#utility.yul\":1245:1257   */\n      revert\n        /* \"#utility.yul\":1209:1259   */\n    tag_134:\n        /* \"#utility.yul\":1294:1352   */\n      tag_135\n        /* \"#utility.yul\":1344:1351   */\n      dup9\n        /* \"#utility.yul\":1335:1341   */\n      dup3\n        /* \"#utility.yul\":1324:1333   */\n      dup10\n        /* \"#utility.yul\":1320:1342   */\n      add\n        /* \"#utility.yul\":1294:1352   */\n      tag_120\n      jump\t// in\n    tag_135:\n        /* \"#utility.yul\":849:1463   */\n      swap7\n      swap10\n      swap6\n      swap9\n      pop\n        /* \"#utility.yul\":1371:1379   */\n      swap7\n        /* \"#utility.yul\":1453:1455   */\n      0x60\n        /* \"#utility.yul\":1438:1456   */\n      add\n        /* \"#utility.yul\":1425:1457   */\n      calldataload\n      swap5\n        /* \"#utility.yul\":849:1463   */\n      swap4\n      pop\n      pop\n      pop\n      pop\n      jump\t// out\n        /* \"#utility.yul\":1468:1641   */\n    tag_121:\n        /* \"#utility.yul\":1536:1556   */\n      dup1\n      calldataload\n      sub(shl(0xa0, 0x01), 0x01)\n        /* \"#utility.yul\":1585:1616   */\n      dup2\n      and\n        /* \"#utility.yul\":1575:1617   */\n      dup2\n      eq\n        /* \"#utility.yul\":1565:1635   */\n      tag_137\n      jumpi\n        /* \"#utility.yul\":1631:1632   */\n      0x00\n        /* \"#utility.yul\":1628:1629   */\n      dup1\n        /* \"#utility.yul\":1621:1633   */\n      revert\n        /* \"#utility.yul\":1565:1635   */\n    tag_137:\n        /* \"#utility.yul\":1468:1641   */\n      swap2\n      swap1\n      pop\n      jump\t// out\n        /* \"#utility.yul\":1646:2013   */\n    tag_122:\n        /* \"#utility.yul\":1709:1717   */\n      0x00\n        /* \"#utility.yul\":1719:1725   */\n      dup1\n        /* \"#utility.yul\":1773:1776   */\n      dup4\n        /* \"#utility.yul\":1766:1770   */\n      0x1f\n        /* \"#utility.yul\":1758:1764   */\n      dup5\n        /* \"#utility.yul\":1754:1771   */\n      add\n        /* \"#utility.yul\":1750:1777   */\n      slt\n        /* \"#utility.yul\":1740:1795   */\n      tag_139\n      jumpi\n        /* \"#utility.yul\":1791:1792   */\n      0x00\n        /* \"#utility.yul\":1788:1789   */\n      dup1\n        /* \"#utility.yul\":1781:1793   */\n      revert\n        /* \"#utility.yul\":1740:1795   */\n    tag_139:\n      pop\n        /* \"#utility.yul\":1814:1834   */\n      dup2\n      calldataload\n        /* \"#utility.yul\":1857:1875   */\n      0xffffffffffffffff\n        /* \"#utility.yul\":1846:1876   */\n      dup2\n      gt\n        /* \"#utility.yul\":1843:1893   */\n      iszero\n      tag_140\n      jumpi\n        /* \"#utility.yul\":1889:1890   */\n      0x00\n        /* \"#utility.yul\":1886:1887   */\n      dup1\n        /* \"#utility.yul\":1879:1891   */\n      revert\n        /* \"#utility.yul\":1843:1893   */\n    tag_140:\n        /* \"#utility.yul\":1926:1930   */\n      0x20\n        /* \"#utility.yul\":1918:1924   */\n      dup4\n        /* \"#utility.yul\":1914:1931   */\n      add\n        /* \"#utility.yul\":1902:1931   */\n      swap2\n      pop\n        /* \"#utility.yul\":1986:1989   */\n      dup4\n        /* \"#utility.yul\":1979:1983   */\n      0x20\n        /* \"#utility.yul\":1969:1975   */\n      dup3\n        /* \"#utility.yul\":1966:1967   */\n      0x05\n        /* \"#utility.yul\":1962:1976   */\n      shl\n        /* \"#utility.yul\":1954:1960   */\n      dup6\n        /* \"#utility.yul\":1950:1977   */\n      add\n        /* \"#utility.yul\":1946:1984   */\n      add\n        /* \"#utility.yul\":1943:1990   */\n      gt\n        /* \"#utility.yul\":1940:2007   */\n      iszero\n      tag_131\n      jumpi\n        /* \"#utility.yul\":2003:2004   */\n      0x00\n        /* \"#utility.yul\":2000:2001   */\n      dup1\n        /* \"#utility.yul\":1993:2005   */\n      revert\n        /* \"#utility.yul\":2018:3228   */\n    tag_31:\n        /* \"#utility.yul\":2178:2184   */\n      0x00\n        /* \"#utility.yul\":2186:2192   */\n      dup1\n        /* \"#utility.yul\":2194:2200   */\n      0x00\n        /* \"#utility.yul\":2202:2208   */\n      dup1\n        /* \"#utility.yul\":2210:2216   */\n      0x00\n        /* \"#utility.yul\":2218:2224   */\n      dup1\n        /* \"#utility.yul\":2226:2232   */\n      0x00\n        /* \"#utility.yul\":2234:2240   */\n      dup1\n        /* \"#utility.yul\":2287:2290   */\n      0xa0\n        /* \"#utility.yul\":2275:2284   */\n      dup10\n        /* \"#utility.yul\":2266:2273   */\n      dup12\n        /* \"#utility.yul\":2262:2285   */\n      sub\n        /* \"#utility.yul\":2258:2291   */\n      slt\n        /* \"#utility.yul\":2255:2308   */\n      iszero\n      tag_143\n      jumpi\n        /* \"#utility.yul\":2304:2305   */\n      0x00\n        /* \"#utility.yul\":2301:2302   */\n      dup1\n        /* \"#utility.yul\":2294:2306   */\n      revert\n        /* \"#utility.yul\":2255:2308   */\n    tag_143:\n        /* \"#utility.yul\":2327:2356   */\n      tag_144\n        /* \"#utility.yul\":2346:2355   */\n      dup10\n        /* \"#utility.yul\":2327:2356   */\n      tag_121\n      jump\t// in\n    tag_144:\n        /* \"#utility.yul\":2317:2356   */\n      swap8\n      pop\n        /* \"#utility.yul\":2375:2413   */\n      tag_145\n        /* \"#utility.yul\":2409:2411   */\n      0x20\n        /* \"#utility.yul\":2398:2407   */\n      dup11\n        /* \"#utility.yul\":2394:2412   */\n      add\n        /* \"#utility.yul\":2375:2413   */\n      tag_121\n      jump\t// in\n    tag_145:\n        /* \"#utility.yul\":2365:2413   */\n      swap7\n      pop\n        /* \"#utility.yul\":2464:2466   */\n      0x40\n        /* \"#utility.yul\":2453:2462   */\n      dup10\n        /* \"#utility.yul\":2449:2467   */\n      add\n        /* \"#utility.yul\":2436:2468   */\n      calldataload\n        /* \"#utility.yul\":2487:2505   */\n      0xffffffffffffffff\n        /* \"#utility.yul\":2528:2530   */\n      dup1\n        /* \"#utility.yul\":2520:2526   */\n      dup3\n        /* \"#utility.yul\":2517:2531   */\n      gt\n        /* \"#utility.yul\":2514:2548   */\n      iszero\n      tag_146\n      jumpi\n        /* \"#utility.yul\":2544:2545   */\n      0x00\n        /* \"#utility.yul\":2541:2542   */\n      dup1\n        /* \"#utility.yul\":2534:2546   */\n      revert\n        /* \"#utility.yul\":2514:2548   */\n    tag_146:\n        /* \"#utility.yul\":2583:2653   */\n      tag_147\n        /* \"#utility.yul\":2645:2652   */\n      dup13\n        /* \"#utility.yul\":2636:2642   */\n      dup4\n        /* \"#utility.yul\":2625:2634   */\n      dup14\n        /* \"#utility.yul\":2621:2643   */\n      add\n        /* \"#utility.yul\":2583:2653   */\n      tag_122\n      jump\t// in\n    tag_147:\n        /* \"#utility.yul\":2672:2680   */\n      swap1\n      swap9\n      pop\n        /* \"#utility.yul\":2557:2653   */\n      swap7\n      pop\n        /* \"#utility.yul\":2760:2762   */\n      0x60\n        /* \"#utility.yul\":2745:2763   */\n      dup12\n      add\n        /* \"#utility.yul\":2732:2764   */\n      calldataload\n      swap2\n      pop\n        /* \"#utility.yul\":2776:2792   */\n      dup1\n      dup3\n      gt\n        /* \"#utility.yul\":2773:2809   */\n      iszero\n      tag_148\n      jumpi\n        /* \"#utility.yul\":2805:2806   */\n      0x00\n        /* \"#utility.yul\":2802:2803   */\n      dup1\n        /* \"#utility.yul\":2795:2807   */\n      revert\n        /* \"#utility.yul\":2773:2809   */\n    tag_148:\n        /* \"#utility.yul\":2844:2916   */\n      tag_149\n        /* \"#utility.yul\":2908:2915   */\n      dup13\n        /* \"#utility.yul\":2897:2905   */\n      dup4\n        /* \"#utility.yul\":2886:2895   */\n      dup14\n        /* \"#utility.yul\":2882:2906   */\n      add\n        /* \"#utility.yul\":2844:2916   */\n      tag_122\n      jump\t// in\n    tag_149:\n        /* \"#utility.yul\":2935:2943   */\n      swap1\n      swap7\n      pop\n        /* \"#utility.yul\":2818:2916   */\n      swap5\n      pop\n        /* \"#utility.yul\":3023:3026   */\n      0x80\n        /* \"#utility.yul\":3008:3027   */\n      dup12\n      add\n        /* \"#utility.yul\":2995:3028   */\n      calldataload\n      swap2\n      pop\n        /* \"#utility.yul\":3040:3056   */\n      dup1\n      dup3\n      gt\n        /* \"#utility.yul\":3037:3073   */\n      iszero\n      tag_150\n      jumpi\n        /* \"#utility.yul\":3069:3070   */\n      0x00\n        /* \"#utility.yul\":3066:3067   */\n      dup1\n        /* \"#utility.yul\":3059:3071   */\n      revert\n        /* \"#utility.yul\":3037:3073   */\n    tag_150:\n      pop\n        /* \"#utility.yul\":3108:3168   */\n      tag_151\n        /* \"#utility.yul\":3160:3167   */\n      dup12\n        /* \"#utility.yul\":3149:3157   */\n      dup3\n        /* \"#utility.yul\":3138:3147   */\n      dup13\n        /* \"#utility.yul\":3134:3158   */\n      add\n        /* \"#utility.yul\":3108:3168   */\n      tag_120\n      jump\t// in\n    tag_151:\n        /* \"#utility.yul\":2018:3228   */\n      swap10\n      swap13\n      swap9\n      swap12\n      pop\n      swap7\n      swap10\n      pop\n      swap5\n      swap8\n      swap4\n      swap7\n      swap3\n      swap6\n        /* \"#utility.yul\":3187:3195   */\n      swap5\n      pop\n      pop\n      pop\n        /* \"#utility.yul\":2018:3228   */\n      jump\t// out\n        /* \"#utility.yul\":3622:4317   */\n    tag_43:\n        /* \"#utility.yul\":3728:3734   */\n      0x00\n        /* \"#utility.yul\":3736:3742   */\n      dup1\n        /* \"#utility.yul\":3744:3750   */\n      0x00\n        /* \"#utility.yul\":3752:3758   */\n      dup1\n        /* \"#utility.yul\":3760:3766   */\n      0x00\n        /* \"#utility.yul\":3768:3774   */\n      dup1\n        /* \"#utility.yul\":3821:3824   */\n      0xa0\n        /* \"#utility.yul\":3809:3818   */\n      dup8\n        /* \"#utility.yul\":3800:3807   */\n      dup10\n        /* \"#utility.yul\":3796:3819   */\n      sub\n        /* \"#utility.yul\":3792:3825   */\n      slt\n        /* \"#utility.yul\":3789:3842   */\n      iszero\n      tag_155\n      jumpi\n        /* \"#utility.yul\":3838:3839   */\n      0x00\n        /* \"#utility.yul\":3835:3836   */\n      dup1\n        /* \"#utility.yul\":3828:3840   */\n      revert\n        /* \"#utility.yul\":3789:3842   */\n    tag_155:\n        /* \"#utility.yul\":3861:3890   */\n      tag_156\n        /* \"#utility.yul\":3880:3889   */\n      dup8\n        /* \"#utility.yul\":3861:3890   */\n      tag_121\n      jump\t// in\n    tag_156:\n        /* \"#utility.yul\":3851:3890   */\n      swap6\n      pop\n        /* \"#utility.yul\":3909:3947   */\n      tag_157\n        /* \"#utility.yul\":3943:3945   */\n      0x20\n        /* \"#utility.yul\":3932:3941   */\n      dup9\n        /* \"#utility.yul\":3928:3946   */\n      add\n        /* \"#utility.yul\":3909:3947   */\n      tag_121\n      jump\t// in\n    tag_157:\n        /* \"#utility.yul\":3899:3947   */\n      swap5\n      pop\n        /* \"#utility.yul\":3994:3996   */\n      0x40\n        /* \"#utility.yul\":3983:3992   */\n      dup8\n        /* \"#utility.yul\":3979:3997   */\n      add\n        /* \"#utility.yul\":3966:3998   */\n      calldataload\n        /* \"#utility.yul\":3956:3998   */\n      swap4\n      pop\n        /* \"#utility.yul\":4045:4047   */\n      0x60\n        /* \"#utility.yul\":4034:4043   */\n      dup8\n        /* \"#utility.yul\":4030:4048   */\n      add\n        /* \"#utility.yul\":4017:4049   */\n      calldataload\n        /* \"#utility.yul\":4007:4049   */\n      swap3\n      pop\n        /* \"#utility.yul\":4100:4103   */\n      0x80\n        /* \"#utility.yul\":4089:4098   */\n      dup8\n        /* \"#utility.yul\":4085:4104   */\n      add\n        /* \"#utility.yul\":4072:4105   */\n      calldataload\n        /* \"#utility.yul\":4128:4146   */\n      0xffffffffffffffff\n        /* \"#utility.yul\":4120:4126   */\n      dup2\n        /* \"#utility.yul\":4117:4147   */\n      gt\n        /* \"#utility.yul\":4114:4164   */\n      iszero\n      tag_158\n      jumpi\n        /* \"#utility.yul\":4160:4161   */\n      0x00\n        /* \"#utility.yul\":4157:4158   */\n      dup1\n        /* \"#utility.yul\":4150:4162   */\n      revert\n        /* \"#utility.yul\":4114:4164   */\n    tag_158:\n        /* \"#utility.yul\":4199:4257   */\n      tag_159\n        /* \"#utility.yul\":4249:4256   */\n      dup10\n        /* \"#utility.yul\":4240:4246   */\n      dup3\n        /* \"#utility.yul\":4229:4238   */\n      dup11\n        /* \"#utility.yul\":4225:4247   */\n      add\n        /* \"#utility.yul\":4199:4257   */\n      tag_120\n      jump\t// in\n    tag_159:\n        /* \"#utility.yul\":3622:4317   */\n      swap8\n      swap11\n      swap7\n      swap10\n      pop\n      swap5\n      swap8\n      pop\n      swap3\n      swap6\n        /* \"#utility.yul\":4276:4284   */\n      swap4\n      swap5\n        /* \"#utility.yul\":3622:4317   */\n      swap3\n      pop\n      pop\n      pop\n      jump\t// out\n        /* \"#utility.yul\":4322:4544   */\n    tag_59:\n        /* \"#utility.yul\":4387:4396   */\n      dup1\n      dup3\n      add\n        /* \"#utility.yul\":4408:4418   */\n      dup1\n      dup3\n      gt\n        /* \"#utility.yul\":4405:4538   */\n      iszero\n      tag_50\n      jumpi\n        /* \"#utility.yul\":4460:4470   */\n      0x4e487b71\n        /* \"#utility.yul\":4455:4458   */\n      0xe0\n        /* \"#utility.yul\":4451:4471   */\n      shl\n        /* \"#utility.yul\":4448:4449   */\n      0x00\n        /* \"#utility.yul\":4441:4472   */\n      mstore\n        /* \"#utility.yul\":4495:4499   */\n      0x11\n        /* \"#utility.yul\":4492:4493   */\n      0x04\n        /* \"#utility.yul\":4485:4500   */\n      mstore\n        /* \"#utility.yul\":4523:4527   */\n      0x24\n        /* \"#utility.yul\":4520:4521   */\n      0x00\n        /* \"#utility.yul\":4513:4528   */\n      revert\n        /* \"#utility.yul\":5038:5772   */\n    tag_82:\n      sub(shl(0xa0, 0x01), 0x01)\n        /* \"#utility.yul\":5345:5360   */\n      dup8\n      dup2\n      and\n        /* \"#utility.yul\":5327:5361   */\n      dup3\n      mstore\n        /* \"#utility.yul\":5397:5412   */\n      dup7\n      and\n        /* \"#utility.yul\":5392:5394   */\n      0x20\n        /* \"#utility.yul\":5377:5395   */\n      dup3\n      add\n        /* \"#utility.yul\":5370:5413   */\n      mstore\n        /* \"#utility.yul\":5444:5446   */\n      0x40\n        /* \"#utility.yul\":5429:5447   */\n      dup2\n      add\n        /* \"#utility.yul\":5422:5456   */\n      dup6\n      swap1\n      mstore\n        /* \"#utility.yul\":5487:5489   */\n      0x60\n        /* \"#utility.yul\":5472:5490   */\n      dup2\n      add\n        /* \"#utility.yul\":5465:5499   */\n      dup5\n      swap1\n      mstore\n        /* \"#utility.yul\":5307:5310   */\n      0xa0\n        /* \"#utility.yul\":5530:5533   */\n      0x80\n        /* \"#utility.yul\":5515:5534   */\n      dup3\n      add\n        /* \"#utility.yul\":5508:5540   */\n      dup2\n      swap1\n      mstore\n        /* \"#utility.yul\":5556:5575   */\n      dup2\n      add\n        /* \"#utility.yul\":5549:5584   */\n      dup3\n      swap1\n      mstore\n        /* \"#utility.yul\":5270:5274   */\n      0x00\n        /* \"#utility.yul\":5577:5583   */\n      dup3\n        /* \"#utility.yul\":5627:5633   */\n      dup5\n        /* \"#utility.yul\":5621:5624   */\n      0xc0\n        /* \"#utility.yul\":5606:5625   */\n      dup5\n      add\n        /* \"#utility.yul\":5593:5642   */\n      calldatacopy\n        /* \"#utility.yul\":5692:5693   */\n      0x00\n        /* \"#utility.yul\":5686:5689   */\n      0xc0\n        /* \"#utility.yul\":5677:5683   */\n      dup5\n        /* \"#utility.yul\":5666:5675   */\n      dup5\n        /* \"#utility.yul\":5662:5684   */\n      add\n        /* \"#utility.yul\":5658:5690   */\n      add\n        /* \"#utility.yul\":5651:5694   */\n      mstore\n        /* \"#utility.yul\":5762:5765   */\n      0xc0\n        /* \"#utility.yul\":5755:5757   */\n      0x1f\n        /* \"#utility.yul\":5751:5758   */\n      not\n        /* \"#utility.yul\":5746:5748   */\n      0x1f\n        /* \"#utility.yul\":5738:5744   */\n      dup6\n        /* \"#utility.yul\":5734:5749   */\n      add\n        /* \"#utility.yul\":5730:5759   */\n      and\n        /* \"#utility.yul\":5719:5728   */\n      dup4\n        /* \"#utility.yul\":5715:5760   */\n      add\n        /* \"#utility.yul\":5711:5766   */\n      add\n        /* \"#utility.yul\":5703:5766   */\n      swap1\n      pop\n        /* \"#utility.yul\":5038:5772   */\n      swap8\n      swap7\n      pop\n      pop\n      pop\n      pop\n      pop\n      pop\n      pop\n      jump\t// out\n\n    auxdata: 0xa26469706673582212203fa086ad0856b460a4924976a84f5296bcdced081d0b6d8d47316c26c3e8438564736f6c63430008180033\n}\n",
				"bytecode": {
					"linkReferences": {},
					"object": "60c060405234801561001057600080fd5b50604051610cbf380380610cbf83398101604081905261002f91610049565b6001600055336080526001600160a01b031660a052610079565b60006020828403121561005b57600080fd5b81516001600160a01b038116811461007257600080fd5b9392505050565b60805160a051610bf76100c86000396000818161043f0152818161058d015281816105ed01526106f90152600081816103ea0152818161046c0152818161076701526107e90152610bf76000f3fe60806040526004361061007b5760003560e01c8063bc197c811161004e578063bc197c81146100f4578063e8e205491461012d578063f23a6e611461014b578063fe67a54b1461016b57600080fd5b806301ffc9a7146100805780631998aeef146100b557806337271cc7146100bf5780637a6cd7bb146100d4575b600080fd5b34801561008c57600080fd5b506100a061009b3660046108db565b610180565b60405190151581526020015b60405180910390f35b6100bd6101b7565b005b3480156100cb57600080fd5b506100bd6102b6565b3480156100e057600080fd5b506100bd6100ef366004610955565b6103b3565b34801561010057600080fd5b5061011461010f366004610a11565b610580565b6040516001600160e01b031990911681526020016100ac565b34801561013957600080fd5b506003546040519081526020016100ac565b34801561015757600080fd5b50610114610166366004610acc565b6105e0565b34801561017757600080fd5b506100bd61063e565b60006001600160e01b03198216630271189760e51b14806101b157506001600160e01b031982166301ffc9a760e01b145b92915050565b6101bf61087a565b60015460ff166101e257604051636e66e97d60e11b815260040160405180910390fd5b600154610100900465ffffffffffff1642106102115760405163b85294d960e01b815260040160405180910390fd5b600254341161023357604051638aba601f60e01b815260040160405180910390fd5b60018054600160381b600160d81b03191633600160381b8102919091179091553460028190556000918252600560205260408220805491929091610278908490610b44565b9091555050604051349033907fe684a55f31b79eca403df938249029212a5925ec6be8012e099b45bc1019e5d290600090a36102b46001600055565b565b6102be61087a565b600154600160381b90046001600160a01b031633036102f057604051631593fa2560e31b815260040160405180910390fd5b336000908152600560205260408120549081900361032157604051630686827b60e51b815260040160405180910390fd5b336000818152600560205260408082208290555190919083908381818185875af1925050503d8060008114610372576040519150601f19603f3d011682016040523d82523d6000602084013e610377565b606091505b50509050806103a7576040516311f847e760e01b8152336004820152602481018390526044015b60405180910390fd5b50506102b46001600055565b6103bb61087a565b60015460ff16156103df576040516305d8f45360e01b815260040160405180910390fd5b336001600160a01b037f000000000000000000000000000000000000000000000000000000000000000016146104285760405163fc375da760e01b815260040160405180910390fd5b604051637921219560e11b81526001600160a01b037f0000000000000000000000000000000000000000000000000000000000000000169063f242432a9061049e907f00000000000000000000000000000000000000000000000000000000000000009030908a908a908a908a90600401610b65565b600060405180830381600087803b1580156104b857600080fd5b505af11580156104cc573d6000803e3d6000fd5b50506001805460ff191681179055506104f290506104ed4262093a80610b44565b6108a4565b6001805460038890556004879055610100600160d81b03191661010065ffffffffffff9384168102600160381b600160d81b0319169190911733600160381b0217918290556002849055604051910490911690859087907f768bd78ab1ec57846676a68a1e1734eb6f53ac34b93517c174e9a36a96a2713990600090a46105796001600055565b5050505050565b6000336001600160a01b037f000000000000000000000000000000000000000000000000000000000000000016146105cb57604051634f2a2fb560e11b815260040160405180910390fd5b5063bc197c8160e01b98975050505050505050565b6000336001600160a01b037f0000000000000000000000000000000000000000000000000000000000000000161461062b57604051634f2a2fb560e11b815260040160405180910390fd5b5063f23a6e6160e01b9695505050505050565b61064661087a565b60015460ff1661066957604051636e66e97d60e11b815260040160405180910390fd5b600154610100900465ffffffffffff164210156106995760405163195c3b1760e21b815260040160405180910390fd5b6001805460ff19169081905560035460048054604051637921219560e11b81523092810192909252600160381b9093046001600160a01b0390811660248301526044820192909252606481019290925260a06084830152600060a48301527f0000000000000000000000000000000000000000000000000000000000000000169063f242432a9060c401600060405180830381600087803b15801561073d57600080fd5b505af1158015610751573d6000803e3d6000fd5b5050600254604051600093506001600160a01b037f00000000000000000000000000000000000000000000000000000000000000001692508381818185875af1925050503d80600081146107c1576040519150601f19603f3d011682016040523d82523d6000602084013e6107c6565b606091505b505090508061081e576002546040516388ca2dd160e01b81526001600160a01b037f0000000000000000000000000000000000000000000000000000000000000000166004820152602481019190915260440161039e565b600254600154600354600454604051908152600160381b9092046001600160a01b0316917f2b2b6e4d2c04cd042f5fb49ebe25d9518176619265c44683e96df259893213629060200160405180910390a4506102b46001600055565b60026000540361089d57604051633ee5aeb560e01b815260040160405180910390fd5b6002600055565b600065ffffffffffff8211156108d7576040516306dfcc6560e41b8152603060048201526024810183905260440161039e565b5090565b6000602082840312156108ed57600080fd5b81356001600160e01b03198116811461090557600080fd5b9392505050565b60008083601f84011261091e57600080fd5b50813567ffffffffffffffff81111561093657600080fd5b60208301915083602082850101111561094e57600080fd5b9250929050565b60008060008060006080868803121561096d57600080fd5b8535945060208601359350604086013567ffffffffffffffff81111561099257600080fd5b61099e8882890161090c565b96999598509660600135949350505050565b80356001600160a01b03811681146109c757600080fd5b919050565b60008083601f8401126109de57600080fd5b50813567ffffffffffffffff8111156109f657600080fd5b6020830191508360208260051b850101111561094e57600080fd5b60008060008060008060008060a0898b031215610a2d57600080fd5b610a36896109b0565b9750610a4460208a016109b0565b9650604089013567ffffffffffffffff80821115610a6157600080fd5b610a6d8c838d016109cc565b909850965060608b0135915080821115610a8657600080fd5b610a928c838d016109cc565b909650945060808b0135915080821115610aab57600080fd5b50610ab88b828c0161090c565b999c989b5096995094979396929594505050565b60008060008060008060a08789031215610ae557600080fd5b610aee876109b0565b9550610afc602088016109b0565b94506040870135935060608701359250608087013567ffffffffffffffff811115610b2657600080fd5b610b3289828a0161090c565b979a9699509497509295939492505050565b808201808211156101b157634e487b7160e01b600052601160045260246000fd5b6001600160a01b03878116825286166020820152604081018590526060810184905260a06080820181905281018290526000828460c0840137600060c0848401015260c0601f19601f850116830101905097965050505050505056fea26469706673582212203fa086ad0856b460a4924976a84f5296bcdced081d0b6d8d47316c26c3e8438564736f6c63430008180033",
					"opcodes": "PUSH1 0xC0 PUSH1 0x40 MSTORE CALLVALUE DUP1 ISZERO PUSH2 0x10 JUMPI PUSH1 0x0 DUP1 REVERT JUMPDEST POP PUSH1 0x40 MLOAD PUSH2 0xCBF CODESIZE SUB DUP1 PUSH2 0xCBF DUP4 CODECOPY DUP2 ADD PUSH1 0x40 DUP2 SWAP1 MSTORE PUSH2 0x2F SWAP2 PUSH2 0x49 JUMP JUMPDEST PUSH1 0x1 PUSH1 0x0 SSTORE CALLER PUSH1 0x80 MSTORE PUSH1 0x1 PUSH1 0x1 PUSH1 0xA0 SHL SUB AND PUSH1 0xA0 MSTORE PUSH2 0x79 JUMP JUMPDEST PUSH1 0x0 PUSH1 0x20 DUP3 DUP5 SUB SLT ISZERO PUSH2 0x5B JUMPI PUSH1 0x0 DUP1 REVERT JUMPDEST DUP2 MLOAD PUSH1 0x1 PUSH1 0x1 PUSH1 0xA0 SHL SUB DUP2 AND DUP2 EQ PUSH2 0x72 JUMPI PUSH1 0x0 DUP1 REVERT JUMPDEST SWAP4 SWAP3 POP POP POP JUMP JUMPDEST PUSH1 0x80 MLOAD PUSH1 0xA0 MLOAD PUSH2 0xBF7 PUSH2 0xC8 PUSH1 0x0 CODECOPY PUSH1 0x0 DUP2 DUP2 PUSH2 0x43F ADD MSTORE DUP2 DUP2 PUSH2 0x58D ADD MSTORE DUP2 DUP2 PUSH2 0x5ED ADD MSTORE PUSH2 0x6F9 ADD MSTORE PUSH1 0x0 DUP2 DUP2 PUSH2 0x3EA ADD MSTORE DUP2 DUP2 PUSH2 0x46C ADD MSTORE DUP2 DUP2 PUSH2 0x767 ADD MSTORE PUSH2 0x7E9 ADD MSTORE PUSH2 0xBF7 PUSH1 0x0 RETURN INVALID PUSH1 0x80 PUSH1 0x40 MSTORE PUSH1 0x4 CALLDATASIZE LT PUSH2 0x7B JUMPI PUSH1 0x0 CALLDATALOAD PUSH1 0xE0 SHR DUP1 PUSH4 0xBC197C81 GT PUSH2 0x4E JUMPI DUP1 PUSH4 0xBC197C81 EQ PUSH2 0xF4 JUMPI DUP1 PUSH4 0xE8E20549 EQ PUSH2 0x12D JUMPI DUP1 PUSH4 0xF23A6E61 EQ PUSH2 0x14B JUMPI DUP1 PUSH4 0xFE67A54B EQ PUSH2 0x16B JUMPI PUSH1 0x0 DUP1 REVERT JUMPDEST DUP1 PUSH4 0x1FFC9A7 EQ PUSH2 0x80 JUMPI DUP1 PUSH4 0x1998AEEF EQ PUSH2 0xB5 JUMPI DUP1 PUSH4 0x37271CC7 EQ PUSH2 0xBF JUMPI DUP1 PUSH4 0x7A6CD7BB EQ PUSH2 0xD4 JUMPI JUMPDEST PUSH1 0x0 DUP1 REVERT JUMPDEST CALLVALUE DUP1 ISZERO PUSH2 0x8C JUMPI PUSH1 0x0 DUP1 REVERT JUMPDEST POP PUSH2 0xA0 PUSH2 0x9B CALLDATASIZE PUSH1 0x4 PUSH2 0x8DB JUMP JUMPDEST PUSH2 0x180 JUMP JUMPDEST PUSH1 0x40 MLOAD SWAP1 ISZERO ISZERO DUP2 MSTORE PUSH1 0x20 ADD JUMPDEST PUSH1 0x40 MLOAD DUP1 SWAP2 SUB SWAP1 RETURN JUMPDEST PUSH2 0xBD PUSH2 0x1B7 JUMP JUMPDEST STOP JUMPDEST CALLVALUE DUP1 ISZERO PUSH2 0xCB JUMPI PUSH1 0x0 DUP1 REVERT JUMPDEST POP PUSH2 0xBD PUSH2 0x2B6 JUMP JUMPDEST CALLVALUE DUP1 ISZERO PUSH2 0xE0 JUMPI PUSH1 0x0 DUP1 REVERT JUMPDEST POP PUSH2 0xBD PUSH2 0xEF CALLDATASIZE PUSH1 0x4 PUSH2 0x955 JUMP JUMPDEST PUSH2 0x3B3 JUMP JUMPDEST CALLVALUE DUP1 ISZERO PUSH2 0x100 JUMPI PUSH1 0x0 DUP1 REVERT JUMPDEST POP PUSH2 0x114 PUSH2 0x10F CALLDATASIZE PUSH1 0x4 PUSH2 0xA11 JUMP JUMPDEST PUSH2 0x580 JUMP JUMPDEST PUSH1 0x40 MLOAD PUSH1 0x1 PUSH1 0x1 PUSH1 0xE0 SHL SUB NOT SWAP1 SWAP2 AND DUP2 MSTORE PUSH1 0x20 ADD PUSH2 0xAC JUMP JUMPDEST CALLVALUE DUP1 ISZERO PUSH2 0x139 JUMPI PUSH1 0x0 DUP1 REVERT JUMPDEST POP PUSH1 0x3 SLOAD PUSH1 0x40 MLOAD SWAP1 DUP2 MSTORE PUSH1 0x20 ADD PUSH2 0xAC JUMP JUMPDEST CALLVALUE DUP1 ISZERO PUSH2 0x157 JUMPI PUSH1 0x0 DUP1 REVERT JUMPDEST POP PUSH2 0x114 PUSH2 0x166 CALLDATASIZE PUSH1 0x4 PUSH2 0xACC JUMP JUMPDEST PUSH2 0x5E0 JUMP JUMPDEST CALLVALUE DUP1 ISZERO PUSH2 0x177 JUMPI PUSH1 0x0 DUP1 REVERT JUMPDEST POP PUSH2 0xBD PUSH2 0x63E JUMP JUMPDEST PUSH1 0x0 PUSH1 0x1 PUSH1 0x1 PUSH1 0xE0 SHL SUB NOT DUP3 AND PUSH4 0x2711897 PUSH1 0xE5 SHL EQ DUP1 PUSH2 0x1B1 JUMPI POP PUSH1 0x1 PUSH1 0x1 PUSH1 0xE0 SHL SUB NOT DUP3 AND PUSH4 0x1FFC9A7 PUSH1 0xE0 SHL EQ JUMPDEST SWAP3 SWAP2 POP POP JUMP JUMPDEST PUSH2 0x1BF PUSH2 0x87A JUMP JUMPDEST PUSH1 0x1 SLOAD PUSH1 0xFF AND PUSH2 0x1E2 JUMPI PUSH1 0x40 MLOAD PUSH4 0x6E66E97D PUSH1 0xE1 SHL DUP2 MSTORE PUSH1 0x4 ADD PUSH1 0x40 MLOAD DUP1 SWAP2 SUB SWAP1 REVERT JUMPDEST PUSH1 0x1 SLOAD PUSH2 0x100 SWAP1 DIV PUSH6 0xFFFFFFFFFFFF AND TIMESTAMP LT PUSH2 0x211 JUMPI PUSH1 0x40 MLOAD PUSH4 0xB85294D9 PUSH1 0xE0 SHL DUP2 MSTORE PUSH1 0x4 ADD PUSH1 0x40 MLOAD DUP1 SWAP2 SUB SWAP1 REVERT JUMPDEST PUSH1 0x2 SLOAD CALLVALUE GT PUSH2 0x233 JUMPI PUSH1 0x40 MLOAD PUSH4 0x8ABA601F PUSH1 0xE0 SHL DUP2 MSTORE PUSH1 0x4 ADD PUSH1 0x40 MLOAD DUP1 SWAP2 SUB SWAP1 REVERT JUMPDEST PUSH1 0x1 DUP1 SLOAD PUSH1 0x1 PUSH1 0x38 SHL PUSH1 0x1 PUSH1 0xD8 SHL SUB NOT AND CALLER PUSH1 0x1 PUSH1 0x38 SHL DUP2 MUL SWAP2 SWAP1 SWAP2 OR SWAP1 SWAP2 SSTORE CALLVALUE PUSH1 0x2 DUP2 SWAP1 SSTORE PUSH1 0x0 SWAP2 DUP3 MSTORE PUSH1 0x5 PUSH1 0x20 MSTORE PUSH1 0x40 DUP3 KECCAK256 DUP1 SLOAD SWAP2 SWAP3 SWAP1 SWAP2 PUSH2 0x278 SWAP1 DUP5 SWAP1 PUSH2 0xB44 JUMP JUMPDEST SWAP1 SWAP2 SSTORE POP POP PUSH1 0x40 MLOAD CALLVALUE SWAP1 CALLER SWAP1 PUSH32 0xE684A55F31B79ECA403DF938249029212A5925EC6BE8012E099B45BC1019E5D2 SWAP1 PUSH1 0x0 SWAP1 LOG3 PUSH2 0x2B4 PUSH1 0x1 PUSH1 0x0 SSTORE JUMP JUMPDEST JUMP JUMPDEST PUSH2 0x2BE PUSH2 0x87A JUMP JUMPDEST PUSH1 0x1 SLOAD PUSH1 0x1 PUSH1 0x38 SHL SWAP1 DIV PUSH1 0x1 PUSH1 0x1 PUSH1 0xA0 SHL SUB AND CALLER SUB PUSH2 0x2F0 JUMPI PUSH1 0x40 MLOAD PUSH4 0x1593FA25 PUSH1 0xE3 SHL DUP2 MSTORE PUSH1 0x4 ADD PUSH1 0x40 MLOAD DUP1 SWAP2 SUB SWAP1 REVERT JUMPDEST CALLER PUSH1 0x0 SWAP1 DUP2 MSTORE PUSH1 0x5 PUSH1 0x20 MSTORE PUSH1 0x40 DUP2 KECCAK256 SLOAD SWAP1 DUP2 SWAP1 SUB PUSH2 0x321 JUMPI PUSH1 0x40 MLOAD PUSH4 0x686827B PUSH1 0xE5 SHL DUP2 MSTORE PUSH1 0x4 ADD PUSH1 0x40 MLOAD DUP1 SWAP2 SUB SWAP1 REVERT JUMPDEST CALLER PUSH1 0x0 DUP2 DUP2 MSTORE PUSH1 0x5 PUSH1 0x20 MSTORE PUSH1 0x40 DUP1 DUP3 KECCAK256 DUP3 SWAP1 SSTORE MLOAD SWAP1 SWAP2 SWAP1 DUP4 SWAP1 DUP4 DUP2 DUP2 DUP2 DUP6 DUP8 GAS CALL SWAP3 POP POP POP RETURNDATASIZE DUP1 PUSH1 0x0 DUP2 EQ PUSH2 0x372 JUMPI PUSH1 0x40 MLOAD SWAP2 POP PUSH1 0x1F NOT PUSH1 0x3F RETURNDATASIZE ADD AND DUP3 ADD PUSH1 0x40 MSTORE RETURNDATASIZE DUP3 MSTORE RETURNDATASIZE PUSH1 0x0 PUSH1 0x20 DUP5 ADD RETURNDATACOPY PUSH2 0x377 JUMP JUMPDEST PUSH1 0x60 SWAP2 POP JUMPDEST POP POP SWAP1 POP DUP1 PUSH2 0x3A7 JUMPI PUSH1 0x40 MLOAD PUSH4 0x11F847E7 PUSH1 0xE0 SHL DUP2 MSTORE CALLER PUSH1 0x4 DUP3 ADD MSTORE PUSH1 0x24 DUP2 ADD DUP4 SWAP1 MSTORE PUSH1 0x44 ADD JUMPDEST PUSH1 0x40 MLOAD DUP1 SWAP2 SUB SWAP1 REVERT JUMPDEST POP POP PUSH2 0x2B4 PUSH1 0x1 PUSH1 0x0 SSTORE JUMP JUMPDEST PUSH2 0x3BB PUSH2 0x87A JUMP JUMPDEST PUSH1 0x1 SLOAD PUSH1 0xFF AND ISZERO PUSH2 0x3DF JUMPI PUSH1 0x40 MLOAD PUSH4 0x5D8F453 PUSH1 0xE0 SHL DUP2 MSTORE PUSH1 0x4 ADD PUSH1 0x40 MLOAD DUP1 SWAP2 SUB SWAP1 REVERT JUMPDEST CALLER PUSH1 0x1 PUSH1 0x1 PUSH1 0xA0 SHL SUB PUSH32 0x0 AND EQ PUSH2 0x428 JUMPI PUSH1 0x40 MLOAD PUSH4 0xFC375DA7 PUSH1 0xE0 SHL DUP2 MSTORE PUSH1 0x4 ADD PUSH1 0x40 MLOAD DUP1 SWAP2 SUB SWAP1 REVERT JUMPDEST PUSH1 0x40 MLOAD PUSH4 0x79212195 PUSH1 0xE1 SHL DUP2 MSTORE PUSH1 0x1 PUSH1 0x1 PUSH1 0xA0 SHL SUB PUSH32 0x0 AND SWAP1 PUSH4 0xF242432A SWAP1 PUSH2 0x49E SWAP1 PUSH32 0x0 SWAP1 ADDRESS SWAP1 DUP11 SWAP1 DUP11 SWAP1 DUP11 SWAP1 DUP11 SWAP1 PUSH1 0x4 ADD PUSH2 0xB65 JUMP JUMPDEST PUSH1 0x0 PUSH1 0x40 MLOAD DUP1 DUP4 SUB DUP2 PUSH1 0x0 DUP8 DUP1 EXTCODESIZE ISZERO DUP1 ISZERO PUSH2 0x4B8 JUMPI PUSH1 0x0 DUP1 REVERT JUMPDEST POP GAS CALL ISZERO DUP1 ISZERO PUSH2 0x4CC JUMPI RETURNDATASIZE PUSH1 0x0 DUP1 RETURNDATACOPY RETURNDATASIZE PUSH1 0x0 REVERT JUMPDEST POP POP PUSH1 0x1 DUP1 SLOAD PUSH1 0xFF NOT AND DUP2 OR SWAP1 SSTORE POP PUSH2 0x4F2 SWAP1 POP PUSH2 0x4ED TIMESTAMP PUSH3 0x93A80 PUSH2 0xB44 JUMP JUMPDEST PUSH2 0x8A4 JUMP JUMPDEST PUSH1 0x1 DUP1 SLOAD PUSH1 0x3 DUP9 SWAP1 SSTORE PUSH1 0x4 DUP8 SWAP1 SSTORE PUSH2 0x100 PUSH1 0x1 PUSH1 0xD8 SHL SUB NOT AND PUSH2 0x100 PUSH6 0xFFFFFFFFFFFF SWAP4 DUP5 AND DUP2 MUL PUSH1 0x1 PUSH1 0x38 SHL PUSH1 0x1 PUSH1 0xD8 SHL SUB NOT AND SWAP2 SWAP1 SWAP2 OR CALLER PUSH1 0x1 PUSH1 0x38 SHL MUL OR SWAP2 DUP3 SWAP1 SSTORE PUSH1 0x2 DUP5 SWAP1 SSTORE PUSH1 0x40 MLOAD SWAP2 DIV SWAP1 SWAP2 AND SWAP1 DUP6 SWAP1 DUP8 SWAP1 PUSH32 0x768BD78AB1EC57846676A68A1E1734EB6F53AC34B93517C174E9A36A96A27139 SWAP1 PUSH1 0x0 SWAP1 LOG4 PUSH2 0x579 PUSH1 0x1 PUSH1 0x0 SSTORE JUMP JUMPDEST POP POP POP POP POP JUMP JUMPDEST PUSH1 0x0 CALLER PUSH1 0x1 PUSH1 0x1 PUSH1 0xA0 SHL SUB PUSH32 0x0 AND EQ PUSH2 0x5CB JUMPI PUSH1 0x40 MLOAD PUSH4 0x4F2A2FB5 PUSH1 0xE1 SHL DUP2 MSTORE PUSH1 0x4 ADD PUSH1 0x40 MLOAD DUP1 SWAP2 SUB SWAP1 REVERT JUMPDEST POP PUSH4 0xBC197C81 PUSH1 0xE0 SHL SWAP9 SWAP8 POP POP POP POP POP POP POP POP JUMP JUMPDEST PUSH1 0x0 CALLER PUSH1 0x1 PUSH1 0x1 PUSH1 0xA0 SHL SUB PUSH32 0x0 AND EQ PUSH2 0x62B JUMPI PUSH1 0x40 MLOAD PUSH4 0x4F2A2FB5 PUSH1 0xE1 SHL DUP2 MSTORE PUSH1 0x4 ADD PUSH1 0x40 MLOAD DUP1 SWAP2 SUB SWAP1 REVERT JUMPDEST POP PUSH4 0xF23A6E61 PUSH1 0xE0 SHL SWAP7 SWAP6 POP POP POP POP POP POP JUMP JUMPDEST PUSH2 0x646 PUSH2 0x87A JUMP JUMPDEST PUSH1 0x1 SLOAD PUSH1 0xFF AND PUSH2 0x669 JUMPI PUSH1 0x40 MLOAD PUSH4 0x6E66E97D PUSH1 0xE1 SHL DUP2 MSTORE PUSH1 0x4 ADD PUSH1 0x40 MLOAD DUP1 SWAP2 SUB SWAP1 REVERT JUMPDEST PUSH1 0x1 SLOAD PUSH2 0x100 SWAP1 DIV PUSH6 0xFFFFFFFFFFFF AND TIMESTAMP LT ISZERO PUSH2 0x699 JUMPI PUSH1 0x40 MLOAD PUSH4 0x195C3B17 PUSH1 0xE2 SHL DUP2 MSTORE PUSH1 0x4 ADD PUSH1 0x40 MLOAD DUP1 SWAP2 SUB SWAP1 REVERT JUMPDEST PUSH1 0x1 DUP1 SLOAD PUSH1 0xFF NOT AND SWAP1 DUP2 SWAP1 SSTORE PUSH1 0x3 SLOAD PUSH1 0x4 DUP1 SLOAD PUSH1 0x40 MLOAD PUSH4 0x79212195 PUSH1 0xE1 SHL DUP2 MSTORE ADDRESS SWAP3 DUP2 ADD SWAP3 SWAP1 SWAP3 MSTORE PUSH1 0x1 PUSH1 0x38 SHL SWAP1 SWAP4 DIV PUSH1 0x1 PUSH1 0x1 PUSH1 0xA0 SHL SUB SWAP1 DUP2 AND PUSH1 0x24 DUP4 ADD MSTORE PUSH1 0x44 DUP3 ADD SWAP3 SWAP1 SWAP3 MSTORE PUSH1 0x64 DUP2 ADD SWAP3 SWAP1 SWAP3 MSTORE PUSH1 0xA0 PUSH1 0x84 DUP4 ADD MSTORE PUSH1 0x0 PUSH1 0xA4 DUP4 ADD MSTORE PUSH32 0x0 AND SWAP1 PUSH4 0xF242432A SWAP1 PUSH1 0xC4 ADD PUSH1 0x0 PUSH1 0x40 MLOAD DUP1 DUP4 SUB DUP2 PUSH1 0x0 DUP8 DUP1 EXTCODESIZE ISZERO DUP1 ISZERO PUSH2 0x73D JUMPI PUSH1 0x0 DUP1 REVERT JUMPDEST POP GAS CALL ISZERO DUP1 ISZERO PUSH2 0x751 JUMPI RETURNDATASIZE PUSH1 0x0 DUP1 RETURNDATACOPY RETURNDATASIZE PUSH1 0x0 REVERT JUMPDEST POP POP PUSH1 0x2 SLOAD PUSH1 0x40 MLOAD PUSH1 0x0 SWAP4 POP PUSH1 0x1 PUSH1 0x1 PUSH1 0xA0 SHL SUB PUSH32 0x0 AND SWAP3 POP DUP4 DUP2 DUP2 DUP2 DUP6 DUP8 GAS CALL SWAP3 POP POP POP RETURNDATASIZE DUP1 PUSH1 0x0 DUP2 EQ PUSH2 0x7C1 JUMPI PUSH1 0x40 MLOAD SWAP2 POP PUSH1 0x1F NOT PUSH1 0x3F RETURNDATASIZE ADD AND DUP3 ADD PUSH1 0x40 MSTORE RETURNDATASIZE DUP3 MSTORE RETURNDATASIZE PUSH1 0x0 PUSH1 0x20 DUP5 ADD RETURNDATACOPY PUSH2 0x7C6 JUMP JUMPDEST PUSH1 0x60 SWAP2 POP JUMPDEST POP POP SWAP1 POP DUP1 PUSH2 0x81E JUMPI PUSH1 0x2 SLOAD PUSH1 0x40 MLOAD PUSH4 0x88CA2DD1 PUSH1 0xE0 SHL DUP2 MSTORE PUSH1 0x1 PUSH1 0x1 PUSH1 0xA0 SHL SUB PUSH32 0x0 AND PUSH1 0x4 DUP3 ADD MSTORE PUSH1 0x24 DUP2 ADD SWAP2 SWAP1 SWAP2 MSTORE PUSH1 0x44 ADD PUSH2 0x39E JUMP JUMPDEST PUSH1 0x2 SLOAD PUSH1 0x1 SLOAD PUSH1 0x3 SLOAD PUSH1 0x4 SLOAD PUSH1 0x40 MLOAD SWAP1 DUP2 MSTORE PUSH1 0x1 PUSH1 0x38 SHL SWAP1 SWAP3 DIV PUSH1 0x1 PUSH1 0x1 PUSH1 0xA0 SHL SUB AND SWAP2 PUSH32 0x2B2B6E4D2C04CD042F5FB49EBE25D9518176619265C44683E96DF25989321362 SWAP1 PUSH1 0x20 ADD PUSH1 0x40 MLOAD DUP1 SWAP2 SUB SWAP1 LOG4 POP PUSH2 0x2B4 PUSH1 0x1 PUSH1 0x0 SSTORE JUMP JUMPDEST PUSH1 0x2 PUSH1 0x0 SLOAD SUB PUSH2 0x89D JUMPI PUSH1 0x40 MLOAD PUSH4 0x3EE5AEB5 PUSH1 0xE0 SHL DUP2 MSTORE PUSH1 0x4 ADD PUSH1 0x40 MLOAD DUP1 SWAP2 SUB SWAP1 REVERT JUMPDEST PUSH1 0x2 PUSH1 0x0 SSTORE JUMP JUMPDEST PUSH1 0x0 PUSH6 0xFFFFFFFFFFFF DUP3 GT ISZERO PUSH2 0x8D7 JUMPI PUSH1 0x40 MLOAD PUSH4 0x6DFCC65 PUSH1 0xE4 SHL DUP2 MSTORE PUSH1 0x30 PUSH1 0x4 DUP3 ADD MSTORE PUSH1 0x24 DUP2 ADD DUP4 SWAP1 MSTORE PUSH1 0x44 ADD PUSH2 0x39E JUMP JUMPDEST POP SWAP1 JUMP JUMPDEST PUSH1 0x0 PUSH1 0x20 DUP3 DUP5 SUB SLT ISZERO PUSH2 0x8ED JUMPI PUSH1 0x0 DUP1 REVERT JUMPDEST DUP2 CALLDATALOAD PUSH1 0x1 PUSH1 0x1 PUSH1 0xE0 SHL SUB NOT DUP2 AND DUP2 EQ PUSH2 0x905 JUMPI PUSH1 0x0 DUP1 REVERT JUMPDEST SWAP4 SWAP3 POP POP POP JUMP JUMPDEST PUSH1 0x0 DUP1 DUP4 PUSH1 0x1F DUP5 ADD SLT PUSH2 0x91E JUMPI PUSH1 0x0 DUP1 REVERT JUMPDEST POP DUP2 CALLDATALOAD PUSH8 0xFFFFFFFFFFFFFFFF DUP2 GT ISZERO PUSH2 0x936 JUMPI PUSH1 0x0 DUP1 REVERT JUMPDEST PUSH1 0x20 DUP4 ADD SWAP2 POP DUP4 PUSH1 0x20 DUP3 DUP6 ADD ADD GT ISZERO PUSH2 0x94E JUMPI PUSH1 0x0 DUP1 REVERT JUMPDEST SWAP3 POP SWAP3 SWAP1 POP JUMP JUMPDEST PUSH1 0x0 DUP1 PUSH1 0x0 DUP1 PUSH1 0x0 PUSH1 0x80 DUP7 DUP9 SUB SLT ISZERO PUSH2 0x96D JUMPI PUSH1 0x0 DUP1 REVERT JUMPDEST DUP6 CALLDATALOAD SWAP5 POP PUSH1 0x20 DUP7 ADD CALLDATALOAD SWAP4 POP PUSH1 0x40 DUP7 ADD CALLDATALOAD PUSH8 0xFFFFFFFFFFFFFFFF DUP2 GT ISZERO PUSH2 0x992 JUMPI PUSH1 0x0 DUP1 REVERT JUMPDEST PUSH2 0x99E DUP9 DUP3 DUP10 ADD PUSH2 0x90C JUMP JUMPDEST SWAP7 SWAP10 SWAP6 SWAP9 POP SWAP7 PUSH1 0x60 ADD CALLDATALOAD SWAP5 SWAP4 POP POP POP POP JUMP JUMPDEST DUP1 CALLDATALOAD PUSH1 0x1 PUSH1 0x1 PUSH1 0xA0 SHL SUB DUP2 AND DUP2 EQ PUSH2 0x9C7 JUMPI PUSH1 0x0 DUP1 REVERT JUMPDEST SWAP2 SWAP1 POP JUMP JUMPDEST PUSH1 0x0 DUP1 DUP4 PUSH1 0x1F DUP5 ADD SLT PUSH2 0x9DE JUMPI PUSH1 0x0 DUP1 REVERT JUMPDEST POP DUP2 CALLDATALOAD PUSH8 0xFFFFFFFFFFFFFFFF DUP2 GT ISZERO PUSH2 0x9F6 JUMPI PUSH1 0x0 DUP1 REVERT JUMPDEST PUSH1 0x20 DUP4 ADD SWAP2 POP DUP4 PUSH1 0x20 DUP3 PUSH1 0x5 SHL DUP6 ADD ADD GT ISZERO PUSH2 0x94E JUMPI PUSH1 0x0 DUP1 REVERT JUMPDEST PUSH1 0x0 DUP1 PUSH1 0x0 DUP1 PUSH1 0x0 DUP1 PUSH1 0x0 DUP1 PUSH1 0xA0 DUP10 DUP12 SUB SLT ISZERO PUSH2 0xA2D JUMPI PUSH1 0x0 DUP1 REVERT JUMPDEST PUSH2 0xA36 DUP10 PUSH2 0x9B0 JUMP JUMPDEST SWAP8 POP PUSH2 0xA44 PUSH1 0x20 DUP11 ADD PUSH2 0x9B0 JUMP JUMPDEST SWAP7 POP PUSH1 0x40 DUP10 ADD CALLDATALOAD PUSH8 0xFFFFFFFFFFFFFFFF DUP1 DUP3 GT ISZERO PUSH2 0xA61 JUMPI PUSH1 0x0 DUP1 REVERT JUMPDEST PUSH2 0xA6D DUP13 DUP4 DUP14 ADD PUSH2 0x9CC JUMP JUMPDEST SWAP1 SWAP9 POP SWAP7 POP PUSH1 0x60 DUP12 ADD CALLDATALOAD SWAP2 POP DUP1 DUP3 GT ISZERO PUSH2 0xA86 JUMPI PUSH1 0x0 DUP1 REVERT JUMPDEST PUSH2 0xA92 DUP13 DUP4 DUP14 ADD PUSH2 0x9CC JUMP JUMPDEST SWAP1 SWAP7 POP SWAP5 POP PUSH1 0x80 DUP12 ADD CALLDATALOAD SWAP2 POP DUP1 DUP3 GT ISZERO PUSH2 0xAAB JUMPI PUSH1 0x0 DUP1 REVERT JUMPDEST POP PUSH2 0xAB8 DUP12 DUP3 DUP13 ADD PUSH2 0x90C JUMP JUMPDEST SWAP10 SWAP13 SWAP9 SWAP12 POP SWAP7 SWAP10 POP SWAP5 SWAP8 SWAP4 SWAP7 SWAP3 SWAP6 SWAP5 POP POP POP JUMP JUMPDEST PUSH1 0x0 DUP1 PUSH1 0x0 DUP1 PUSH1 0x0 DUP1 PUSH1 0xA0 DUP8 DUP10 SUB SLT ISZERO PUSH2 0xAE5 JUMPI PUSH1 0x0 DUP1 REVERT JUMPDEST PUSH2 0xAEE DUP8 PUSH2 0x9B0 JUMP JUMPDEST SWAP6 POP PUSH2 0xAFC PUSH1 0x20 DUP9 ADD PUSH2 0x9B0 JUMP JUMPDEST SWAP5 POP PUSH1 0x40 DUP8 ADD CALLDATALOAD SWAP4 POP PUSH1 0x60 DUP8 ADD CALLDATALOAD SWAP3 POP PUSH1 0x80 DUP8 ADD CALLDATALOAD PUSH8 0xFFFFFFFFFFFFFFFF DUP2 GT ISZERO PUSH2 0xB26 JUMPI PUSH1 0x0 DUP1 REVERT JUMPDEST PUSH2 0xB32 DUP10 DUP3 DUP11 ADD PUSH2 0x90C JUMP JUMPDEST SWAP8 SWAP11 SWAP7 SWAP10 POP SWAP5 SWAP8 POP SWAP3 SWAP6 SWAP4 SWAP5 SWAP3 POP POP POP JUMP JUMPDEST DUP1 DUP3 ADD DUP1 DUP3 GT ISZERO PUSH2 0x1B1 JUMPI PUSH4 0x4E487B71 PUSH1 0xE0 SHL PUSH1 0x0 MSTORE PUSH1 0x11 PUSH1 0x4 MSTORE PUSH1 0x24 PUSH1 0x0 REVERT JUMPDEST PUSH1 0x1 PUSH1 0x1 PUSH1 0xA0 SHL SUB DUP8 DUP2 AND DUP3 MSTORE DUP7 AND PUSH1 0x20 DUP3 ADD MSTORE PUSH1 0x40 DUP2 ADD DUP6 SWAP1 MSTORE PUSH1 0x60 DUP2 ADD DUP5 SWAP1 MSTORE PUSH1 0xA0 PUSH1 0x80 DUP3 ADD DUP2 SWAP1 MSTORE DUP2 ADD DUP3 SWAP1 MSTORE PUSH1 0x0 DUP3 DUP5 PUSH1 0xC0 DUP5 ADD CALLDATACOPY PUSH1 0x0 PUSH1 0xC0 DUP5 DUP5 ADD ADD MSTORE PUSH1 0xC0 PUSH1 0x1F NOT PUSH1 0x1F DUP6 ADD AND DUP4 ADD ADD SWAP1 POP SWAP8 SWAP7 POP POP POP POP POP POP POP JUMP INVALID LOG2 PUSH5 0x6970667358 0x22 SLT KECCAK256 EXTCODEHASH LOG0 DUP7 0xAD ADDMOD JUMP 0xB4 PUSH1 0xA4 SWAP3 BLOBHASH PUSH23 0xA84F5296BCDCED081D0B6D8D47316C26C3E8438564736F PUSH13 0x63430008180033000000000000 "
				},
				"gasEstimates": {
					"creation": {
						"codeDepositCost": "612600",
						"executionCost": "infinite",
						"totalCost": "infinite"
					},
					"external": {
						"bid()": "125179",
						"endAuction()": "infinite",
						"getTokenIdOnAuction()": "2302",
						"onERC1155BatchReceived(address,address,uint256[],uint256[],bytes)": "infinite",
						"onERC1155Received(address,address,uint256,uint256,bytes)": "infinite",
						"startAuction(uint256,uint256,bytes,uint256)": "infinite",
						"supportsInterface(bytes4)": "427",
						"withdrawBid()": "infinite"
					}
				},
				"methodIdentifiers": {
					"bid()": "1998aeef",
					"endAuction()": "fe67a54b",
					"getTokenIdOnAuction()": "e8e20549",
					"onERC1155BatchReceived(address,address,uint256[],uint256[],bytes)": "bc197c81",
					"onERC1155Received(address,address,uint256,uint256,bytes)": "f23a6e61",
					"startAuction(uint256,uint256,bytes,uint256)": "7a6cd7bb",
					"supportsInterface(bytes4)": "01ffc9a7",
					"withdrawBid()": "37271cc7"
				}
			},
			"storageLayout": {
				"storage": [
					{
						"astId": 624,
						"contract": ".deploys/use-cases/EnglishAuction.sol:EnglishAuction",
						"label": "_status",
						"offset": 0,
						"slot": "0",
						"type": "t_uint256"
					},
					{
						"astId": 50,
						"contract": ".deploys/use-cases/EnglishAuction.sol:EnglishAuction",
						"label": "s_started",
						"offset": 0,
						"slot": "1",
						"type": "t_bool"
					},
					{
						"astId": 52,
						"contract": ".deploys/use-cases/EnglishAuction.sol:EnglishAuction",
						"label": "s_endTimestamp",
						"offset": 1,
						"slot": "1",
						"type": "t_uint48"
					},
					{
						"astId": 54,
						"contract": ".deploys/use-cases/EnglishAuction.sol:EnglishAuction",
						"label": "s_highestBidder",
						"offset": 7,
						"slot": "1",
						"type": "t_address"
					},
					{
						"astId": 56,
						"contract": ".deploys/use-cases/EnglishAuction.sol:EnglishAuction",
						"label": "s_highestBid",
						"offset": 0,
						"slot": "2",
						"type": "t_uint256"
					},
					{
						"astId": 58,
						"contract": ".deploys/use-cases/EnglishAuction.sol:EnglishAuction",
						"label": "s_tokenIdOnAuction",
						"offset": 0,
						"slot": "3",
						"type": "t_uint256"
					},
					{
						"astId": 60,
						"contract": ".deploys/use-cases/EnglishAuction.sol:EnglishAuction",
						"label": "s_fractionalizedAmountOnAuction",
						"offset": 0,
						"slot": "4",
						"type": "t_uint256"
					},
					{
						"astId": 64,
						"contract": ".deploys/use-cases/EnglishAuction.sol:EnglishAuction",
						"label": "s_bids",
						"offset": 0,
						"slot": "5",
						"type": "t_mapping(t_address,t_uint256)"
					}
				],
				"types": {
					"t_address": {
						"encoding": "inplace",
						"label": "address",
						"numberOfBytes": "20"
					},
					"t_bool": {
						"encoding": "inplace",
						"label": "bool",
						"numberOfBytes": "1"
					},
					"t_mapping(t_address,t_uint256)": {
						"encoding": "mapping",
						"key": "t_address",
						"label": "mapping(address => uint256)",
						"numberOfBytes": "32",
						"value": "t_uint256"
					},
					"t_uint256": {
						"encoding": "inplace",
						"label": "uint256",
						"numberOfBytes": "32"
					},
					"t_uint48": {
						"encoding": "inplace",
						"label": "uint48",
						"numberOfBytes": "6"
					}
				}
			},
			"userdoc": {
				"kind": "user",
				"methods": {},
				"version": 1
			}
		}
	}
}